{
  "_format": "hh-sol-artifact-1",
  "contractName": "TicTacToe",
  "sourceName": "contracts/TicTacToe.sol",
  "abi": [
    {
      "inputs": [],
      "stateMutability": "nonpayable",
      "type": "constructor"
    },
    {
      "anonymous": false,
      "inputs": [
        {
          "indexed": true,
          "internalType": "uint256",
          "name": "gameNum",
          "type": "uint256"
        },
        {
          "indexed": false,
          "internalType": "string",
          "name": "name",
          "type": "string"
        }
      ],
      "name": "GameCreated",
      "type": "event"
    },
    {
      "anonymous": false,
      "inputs": [
        {
          "indexed": true,
          "internalType": "uint256",
          "name": "gameNum",
          "type": "uint256"
        }
      ],
      "name": "GameFinished",
      "type": "event"
    },
    {
      "anonymous": false,
      "inputs": [
        {
          "indexed": true,
          "internalType": "uint256",
          "name": "gameNum",
          "type": "uint256"
        },
        {
          "indexed": false,
          "internalType": "address",
          "name": "player",
          "type": "address"
        }
      ],
      "name": "JoinedGame",
      "type": "event"
    },
    {
      "anonymous": false,
      "inputs": [
        {
          "indexed": true,
          "internalType": "uint256",
          "name": "gameNum",
          "type": "uint256"
        },
        {
          "indexed": false,
          "internalType": "uint8",
          "name": "x",
          "type": "uint8"
        },
        {
          "indexed": false,
          "internalType": "uint8",
          "name": "y",
          "type": "uint8"
        },
        {
          "indexed": false,
          "internalType": "address",
          "name": "player",
          "type": "address"
        }
      ],
      "name": "Played",
      "type": "event"
    },
    {
      "anonymous": false,
      "inputs": [
        {
          "indexed": true,
          "internalType": "uint256",
          "name": "gameNum",
          "type": "uint256"
        },
        {
          "indexed": false,
          "internalType": "address",
          "name": "player",
          "type": "address"
        }
      ],
      "name": "RewardClaimed",
      "type": "event"
    },
    {
      "inputs": [
        {
          "internalType": "uint256",
          "name": "",
          "type": "uint256"
        },
        {
          "internalType": "uint256",
          "name": "",
          "type": "uint256"
        },
        {
          "internalType": "uint256",
          "name": "",
          "type": "uint256"
        }
      ],
      "name": "board",
      "outputs": [
        {
          "internalType": "uint8",
          "name": "",
          "type": "uint8"
        }
      ],
      "stateMutability": "view",
      "type": "function"
    },
    {
      "inputs": [
        {
          "internalType": "uint256",
          "name": "gameNum",
          "type": "uint256"
        }
      ],
      "name": "claimTie",
      "outputs": [],
      "stateMutability": "nonpayable",
      "type": "function"
    },
    {
      "inputs": [
        {
          "internalType": "uint256",
          "name": "gameNum",
          "type": "uint256"
        }
      ],
      "name": "claimWin",
      "outputs": [],
      "stateMutability": "nonpayable",
      "type": "function"
    },
    {
      "inputs": [
        {
          "internalType": "string",
          "name": "_name",
          "type": "string"
        }
      ],
      "name": "createGame",
      "outputs": [],
      "stateMutability": "payable",
      "type": "function"
    },
    {
      "inputs": [],
      "name": "gameCnt",
      "outputs": [
        {
          "internalType": "uint256",
          "name": "",
          "type": "uint256"
        }
      ],
      "stateMutability": "view",
      "type": "function"
    },
    {
      "inputs": [
        {
          "internalType": "uint256",
          "name": "gameNum",
          "type": "uint256"
        }
      ],
      "name": "getGameData",
      "outputs": [
        {
          "internalType": "string",
          "name": "",
          "type": "string"
        },
        {
          "internalType": "address[]",
          "name": "",
          "type": "address[]"
        },
        {
          "internalType": "uint8[3][3]",
          "name": "",
          "type": "uint8[3][3]"
        },
        {
          "internalType": "address",
          "name": "",
          "type": "address"
        },
        {
          "internalType": "address",
          "name": "",
          "type": "address"
        },
        {
          "internalType": "enum TicTacToe.GameStatus",
          "name": "",
          "type": "uint8"
        },
        {
          "internalType": "bool[2]",
          "name": "",
          "type": "bool[2]"
        }
      ],
      "stateMutability": "view",
      "type": "function"
    },
    {
      "inputs": [
        {
          "internalType": "uint256",
          "name": "gameNum",
          "type": "uint256"
        }
      ],
      "name": "joinGame",
      "outputs": [],
      "stateMutability": "payable",
      "type": "function"
    },
    {
      "inputs": [
        {
          "internalType": "uint256",
          "name": "",
          "type": "uint256"
        }
      ],
      "name": "name",
      "outputs": [
        {
          "internalType": "string",
          "name": "",
          "type": "string"
        }
      ],
      "stateMutability": "view",
      "type": "function"
    },
    {
      "inputs": [
        {
          "internalType": "uint256",
          "name": "gameNum",
          "type": "uint256"
        },
        {
          "internalType": "uint8",
          "name": "x",
          "type": "uint8"
        },
        {
          "internalType": "uint8",
          "name": "y",
          "type": "uint8"
        }
      ],
      "name": "play",
      "outputs": [],
      "stateMutability": "nonpayable",
      "type": "function"
    },
    {
      "inputs": [
        {
          "internalType": "uint256",
          "name": "",
          "type": "uint256"
        },
        {
          "internalType": "uint256",
          "name": "",
          "type": "uint256"
        }
      ],
      "name": "players",
      "outputs": [
        {
          "internalType": "address",
          "name": "",
          "type": "address"
        }
      ],
      "stateMutability": "view",
      "type": "function"
    },
    {
      "inputs": [
        {
          "internalType": "uint256",
          "name": "",
          "type": "uint256"
        },
        {
          "internalType": "uint256",
          "name": "",
          "type": "uint256"
        }
      ],
      "name": "rewardClaimed",
      "outputs": [
        {
          "internalType": "bool",
          "name": "",
          "type": "bool"
        }
      ],
      "stateMutability": "view",
      "type": "function"
    },
    {
      "inputs": [
        {
          "internalType": "uint256",
          "name": "",
          "type": "uint256"
        }
      ],
      "name": "status",
      "outputs": [
        {
          "internalType": "enum TicTacToe.GameStatus",
          "name": "",
          "type": "uint8"
        }
      ],
      "stateMutability": "view",
      "type": "function"
    },
    {
      "inputs": [
        {
          "internalType": "uint256",
          "name": "",
          "type": "uint256"
        }
      ],
      "name": "turn",
      "outputs": [
        {
          "internalType": "address",
          "name": "",
          "type": "address"
        }
      ],
      "stateMutability": "view",
      "type": "function"
    },
    {
      "inputs": [
        {
          "internalType": "uint256",
          "name": "",
          "type": "uint256"
        }
      ],
      "name": "winner",
      "outputs": [
        {
          "internalType": "address",
          "name": "",
          "type": "address"
        }
      ],
      "stateMutability": "view",
      "type": "function"
    }
  ],
  "bytecode": "0x608060405234801561001057600080fd5b506000600781905550613315806100286000396000f3fe6080604052600436106100dc5760003560e01c806342d21ef71161007f578063b043d7d611610059578063b043d7d6146102e8578063b6a6566514610325578063ee0144ab14610368578063efaa55a014610391576100dc565b806342d21ef714610231578063998f1b801461026e578063af2e76dd146102ab576100dc565b80631847b7fb116100bb5780631847b7fb146101845780631cbeae5e146101ad5780631e90857f146101ea5780632ebc050414610215576100dc565b8062ad800c146100e15780630ca922b81461011e578063157ea1c614610147575b600080fd5b3480156100ed57600080fd5b5061010860048036038101906101039190612222565b6103ad565b60405161011591906122df565b60405180910390f35b34801561012a57600080fd5b5061014560048036038101906101409190612222565b61044d565b005b34801561015357600080fd5b5061016e60048036038101906101699190612301565b6108be565b60405161017b919061235c565b60405180910390f35b34801561019057600080fd5b506101ab60048036038101906101a691906123b0565b6108f7565b005b3480156101b957600080fd5b506101d460048036038101906101cf9190612222565b610f72565b6040516101e19190612444565b60405180910390f35b3480156101f657600080fd5b506101ff610fa5565b60405161020c919061246e565b60405180910390f35b61022f600480360381019061022a91906125be565b610fab565b005b34801561023d57600080fd5b5061025860048036038101906102539190612222565b611081565b604051610265919061267e565b60405180910390f35b34801561027a57600080fd5b5061029560048036038101906102909190612301565b6110a1565b6040516102a29190612444565b60405180910390f35b3480156102b757600080fd5b506102d260048036038101906102cd9190612699565b6110ef565b6040516102df91906126fb565b60405180910390f35b3480156102f457600080fd5b5061030f600480360381019061030a9190612222565b611138565b60405161031c9190612444565b60405180910390f35b34801561033157600080fd5b5061034c60048036038101906103479190612222565b61116b565b60405161035f97969594939291906129c6565b60405180910390f35b34801561037457600080fd5b5061038f600480360381019061038a9190612222565b611482565b005b6103ab60048036038101906103a69190612222565b611815565b005b600060205280600052604060002060009150905080546103cc90612a77565b80601f01602080910402602001604051908101604052809291908181526020018280546103f890612a77565b80156104455780601f1061041a57610100808354040283529160200191610445565b820191906000526020600020905b81548152906001019060200180831161042857829003601f168201915b505050505081565b6002808111156104605761045f612607565b5b6005600083815260200190815260200160002060009054906101000a900460ff16600281111561049357610492612607565b5b146104d3576040517f08c379a00000000000000000000000000000000000000000000000000000000081526004016104ca90612af4565b60405180910390fd5b600073ffffffffffffffffffffffffffffffffffffffff166004600083815260200190815260200160002060009054906101000a900473ffffffffffffffffffffffffffffffffffffffff1673ffffffffffffffffffffffffffffffffffffffff1614610575576040517f08c379a000000000000000000000000000000000000000000000000000000000815260040161056c90612b60565b60405180910390fd5b6001600082815260200190815260200160002060008154811061059b5761059a612b80565b5b9060005260206000200160009054906101000a900473ffffffffffffffffffffffffffffffffffffffff1673ffffffffffffffffffffffffffffffffffffffff163373ffffffffffffffffffffffffffffffffffffffff16148061067a5750600160008281526020019081526020016000206001815481106106205761061f612b80565b5b9060005260206000200160009054906101000a900473ffffffffffffffffffffffffffffffffffffffff1673ffffffffffffffffffffffffffffffffffffffff163373ffffffffffffffffffffffffffffffffffffffff16145b6106b9576040517f08c379a00000000000000000000000000000000000000000000000000000000081526004016106b090612bfb565b60405180910390fd5b60003373ffffffffffffffffffffffffffffffffffffffff1666b1a2bc2ec500006040516106e690612c4c565b60006040518083038185875af1925050503d8060008114610723576040519150601f19603f3d011682016040523d82523d6000602084013e610728565b606091505b505090508061076c576040517f08c379a000000000000000000000000000000000000000000000000000000000815260040161076390612cad565b60405180910390fd5b3373ffffffffffffffffffffffffffffffffffffffff16600160008481526020019081526020016000206000815481106107a9576107a8612b80565b5b9060005260206000200160009054906101000a900473ffffffffffffffffffffffffffffffffffffffff1673ffffffffffffffffffffffffffffffffffffffff161461083a5760016006600084815260200190815260200160002060016002811061081757610816612b80565b5b602091828204019190066101000a81548160ff0219169083151502179055610881565b60016006600084815260200190815260200160002060006002811061086257610861612b80565b5b602091828204019190066101000a81548160ff02191690831515021790555b50817f5dd59f4285b36241394b73f8f7ae03d0290b030a86803cf2562ecf33eeb617bd336040516108b29190612444565b60405180910390a25050565b600660205281600052604060002081600281106108da57600080fd5b60209182820401919006915091509054906101000a900460ff1681565b3373ffffffffffffffffffffffffffffffffffffffff166003600085815260200190815260200160002060009054906101000a900473ffffffffffffffffffffffffffffffffffffffff1673ffffffffffffffffffffffffffffffffffffffff1614610998576040517f08c379a000000000000000000000000000000000000000000000000000000000815260040161098f90612d19565b60405180910390fd5b6000600260008581526020019081526020016000208360ff16600381106109c2576109c1612b80565b5b018260ff16600381106109d8576109d7612b80565b5b602091828204019190069054906101000a900460ff1660ff1614610a31576040517f08c379a0000000000000000000000000000000000000000000000000000000008152600401610a2890612d85565b60405180910390fd5b60016002811115610a4557610a44612607565b5b6005600085815260200190815260200160002060009054906101000a900460ff166002811115610a7857610a77612607565b5b14610ab8576040517f08c379a0000000000000000000000000000000000000000000000000000000008152600401610aaf90612df1565b60405180910390fd5b600060016000858152602001908152602001600020600081548110610ae057610adf612b80565b5b9060005260206000200160009054906101000a900473ffffffffffffffffffffffffffffffffffffffff1673ffffffffffffffffffffffffffffffffffffffff166003600086815260200190815260200160002060009054906101000a900473ffffffffffffffffffffffffffffffffffffffff1673ffffffffffffffffffffffffffffffffffffffff1614610b77576002610b7a565b60015b905080600260008681526020019081526020016000208460ff1660038110610ba557610ba4612b80565b5b018360ff1660038110610bbb57610bba612b80565b5b602091828204019190066101000a81548160ff021916908360ff160217905550837fa9971a3503f5942394cf5bb459dcda12155a44b64890f494bc402f36223a85be848433604051610c0f93929190612e11565b60405180910390a260016000858152602001908152602001600020600081548110610c3d57610c3c612b80565b5b9060005260206000200160009054906101000a900473ffffffffffffffffffffffffffffffffffffffff1673ffffffffffffffffffffffffffffffffffffffff166003600086815260200190815260200160002060009054906101000a900473ffffffffffffffffffffffffffffffffffffffff1673ffffffffffffffffffffffffffffffffffffffff1614610d235760016000858152602001908152602001600020600081548110610cf357610cf2612b80565b5b9060005260206000200160009054906101000a900473ffffffffffffffffffffffffffffffffffffffff16610d75565b60016000858152602001908152602001600020600181548110610d4957610d48612b80565b5b9060005260206000200160009054906101000a900473ffffffffffffffffffffffffffffffffffffffff165b6003600086815260200190815260200160002060006101000a81548173ffffffffffffffffffffffffffffffffffffffff021916908373ffffffffffffffffffffffffffffffffffffffff160217905550610dd08482611a2f565b15610ef35760016000858152602001908152602001600020600182610df59190612e77565b60ff1681548110610e0957610e08612b80565b5b9060005260206000200160009054906101000a900473ffffffffffffffffffffffffffffffffffffffff166004600086815260200190815260200160002060006101000a81548173ffffffffffffffffffffffffffffffffffffffff021916908373ffffffffffffffffffffffffffffffffffffffff16021790555060026005600086815260200190815260200160002060006101000a81548160ff02191690836002811115610ebc57610ebb612607565b5b0217905550837f6543ec12c6e53f26532beb5289ef5732dcd77c2e9e9921ae42b695905f5e84c060405160405180910390a2610f6c565b610efc84611e66565b15610f6b5760026005600086815260200190815260200160002060006101000a81548160ff02191690836002811115610f3857610f37612607565b5b0217905550837f6543ec12c6e53f26532beb5289ef5732dcd77c2e9e9921ae42b695905f5e84c060405160405180910390a25b5b50505050565b60046020528060005260406000206000915054906101000a900473ffffffffffffffffffffffffffffffffffffffff1681565b60075481565b8060008060075481526020019081526020016000209081610fcc9190613058565b50610fd8600754611815565b3360036000600754815260200190815260200160002060006101000a81548173ffffffffffffffffffffffffffffffffffffffff021916908373ffffffffffffffffffffffffffffffffffffffff1602179055506007547f92cd4308de0033bbf62e7d0ff46ce10049efffad40fb2c7d8a352a4a6ca7adc18260405161105e91906122df565b60405180910390a2600760008154809291906110799061312a565b919050555050565b60056020528060005260406000206000915054906101000a900460ff1681565b600160205281600052604060002081815481106110bd57600080fd5b906000526020600020016000915091509054906101000a900473ffffffffffffffffffffffffffffffffffffffff1681565b6002602052826000526040600020826003811061110b57600080fd5b01816003811061111a57600080fd5b6020918282040191900692509250509054906101000a900460ff1681565b60036020528060005260406000206000915054906101000a900473ffffffffffffffffffffffffffffffffffffffff1681565b606080611176612167565b6000806000611183612194565b600080898152602001908152602001600020600160008a8152602001908152602001600020600260008b8152602001908152602001600020600360008c815260200190815260200160002060009054906101000a900473ffffffffffffffffffffffffffffffffffffffff16600460008d815260200190815260200160002060009054906101000a900473ffffffffffffffffffffffffffffffffffffffff16600560008e815260200190815260200160002060009054906101000a900460ff16600660008f815260200190815260200160002086805461126390612a77565b80601f016020809104026020016040519081016040528092919081815260200182805461128f90612a77565b80156112dc5780601f106112b1576101008083540402835291602001916112dc565b820191906000526020600020905b8154815290600101906020018083116112bf57829003601f168201915b505050505096508580548060200260200160405190810160405280929190818152602001828054801561136457602002820191906000526020600020905b8160009054906101000a900473ffffffffffffffffffffffffffffffffffffffff1673ffffffffffffffffffffffffffffffffffffffff168152602001906001019080831161131a575b5050505050955084600380602002604051908101604052809291906000905b828210156113ff578382016003806020026040519081016040528092919082600380156113eb576020028201916000905b82829054906101000a900460ff1660ff16815260200190600101906020826000010492830192600103820291508084116113b45790505b505050505081526020019060010190611383565b50505050945080600280602002604051908101604052809291908260028015611462576020028201916000905b82829054906101000a900460ff1615158152602001906001019060208260000104928301926001038202915080841161142c5790505b505050505090509650965096509650965096509650919395979092949650565b60028081111561149557611494612607565b5b6005600083815260200190815260200160002060009054906101000a900460ff1660028111156114c8576114c7612607565b5b14611508576040517f08c379a00000000000000000000000000000000000000000000000000000000081526004016114ff90612af4565b60405180910390fd5b6004600082815260200190815260200160002060009054906101000a900473ffffffffffffffffffffffffffffffffffffffff1673ffffffffffffffffffffffffffffffffffffffff163373ffffffffffffffffffffffffffffffffffffffff16146115a9576040517f08c379a00000000000000000000000000000000000000000000000000000000081526004016115a0906131be565b60405180910390fd5b60006004600083815260200190815260200160002060009054906101000a900473ffffffffffffffffffffffffffffffffffffffff1673ffffffffffffffffffffffffffffffffffffffff1667016345785d8a000060405161160a90612c4c565b60006040518083038185875af1925050503d8060008114611647576040519150601f19603f3d011682016040523d82523d6000602084013e61164c565b606091505b5050905080611690576040517f08c379a000000000000000000000000000000000000000000000000000000000815260040161168790612cad565b60405180910390fd5b6004600083815260200190815260200160002060009054906101000a900473ffffffffffffffffffffffffffffffffffffffff1673ffffffffffffffffffffffffffffffffffffffff1660016000848152602001908152602001600020600081548110611700576116ff612b80565b5b9060005260206000200160009054906101000a900473ffffffffffffffffffffffffffffffffffffffff1673ffffffffffffffffffffffffffffffffffffffff16146117915760016006600084815260200190815260200160002060016002811061176e5761176d612b80565b5b602091828204019190066101000a81548160ff02191690831515021790556117d8565b6001600660008481526020019081526020016000206000600281106117b9576117b8612b80565b5b602091828204019190066101000a81548160ff02191690831515021790555b50817f5dd59f4285b36241394b73f8f7ae03d0290b030a86803cf2562ecf33eeb617bd336040516118099190612444565b60405180910390a25050565b66b1a2bc2ec50000341461185e576040517f08c379a00000000000000000000000000000000000000000000000000000000081526004016118559061322a565b60405180910390fd5b6000600281111561187257611871612607565b5b6005600083815260200190815260200160002060009054906101000a900460ff1660028111156118a5576118a4612607565b5b146118e5576040517f08c379a00000000000000000000000000000000000000000000000000000000081526004016118dc90613296565b60405180910390fd5b60016000828152602001908152602001600020339080600181540180825580915050600190039060005260206000200160009091909190916101000a81548173ffffffffffffffffffffffffffffffffffffffff021916908373ffffffffffffffffffffffffffffffffffffffff16021790555060026001600083815260200190815260200160002080549050146119b75760006005600083815260200190815260200160002060006101000a81548160ff021916908360028111156119ae576119ad612607565b5b021790556119f3565b60016005600083815260200190815260200160002060006101000a81548160ff021916908360028111156119ee576119ed612607565b5b021790555b50807f1f8563b32a0bf618f00d2cbcb52b004d5757561ee12274f8c1d85b6f44fa551a33604051611a249190612444565b60405180910390a250565b60008060026000858152602001908152602001600020600380602002604051908101604052809291906000905b82821015611ad857838201600380602002604051908101604052809291908260038015611ac4576020028201916000905b82829054906101000a900460ff1660ff1681526020019060010190602082600001049283019260010382029150808411611a8d5790505b505050505081526020019060010190611a5c565b50505050905060005b60038160ff161015611bd1578360ff16828260ff1660038110611b0757611b06612b80565b5b6020020151600060038110611b1f57611b1e612b80565b5b602002015160ff16148015611b6b57508360ff16828260ff1660038110611b4957611b48612b80565b5b6020020151600160038110611b6157611b60612b80565b5b602002015160ff16145b8015611bae57508360ff16828260ff1660038110611b8c57611b8b612b80565b5b6020020151600260038110611ba457611ba3612b80565b5b602002015160ff16145b15611bbe57600192505050611e60565b8080611bc9906132b6565b915050611ae1565b5060005b60038160ff161015611cc5578360ff1682600060038110611bf957611bf8612b80565b5b60200201518260ff1660038110611c1357611c12612b80565b5b602002015160ff16148015611c5f57508360ff1682600160038110611c3b57611c3a612b80565b5b60200201518260ff1660038110611c5557611c54612b80565b5b602002015160ff16145b8015611ca257508360ff1682600260038110611c7e57611c7d612b80565b5b60200201518260ff1660038110611c9857611c97612b80565b5b602002015160ff16145b15611cb257600192505050611e60565b8080611cbd906132b6565b915050611bd5565b508260ff1681600060038110611cde57611cdd612b80565b5b6020020151600060038110611cf657611cf5612b80565b5b602002015160ff16148015611d4057508260ff1681600160038110611d1e57611d1d612b80565b5b6020020151600160038110611d3657611d35612b80565b5b602002015160ff16145b8015611d8157508260ff1681600260038110611d5f57611d5e612b80565b5b6020020151600260038110611d7757611d76612b80565b5b602002015160ff16145b15611d90576001915050611e60565b8260ff1681600060038110611da857611da7612b80565b5b6020020151600260038110611dc057611dbf612b80565b5b602002015160ff16148015611e0a57508260ff1681600160038110611de857611de7612b80565b5b6020020151600160038110611e0057611dff612b80565b5b602002015160ff16145b8015611e4b57508260ff1681600260038110611e2957611e28612b80565b5b6020020151600060038110611e4157611e40612b80565b5b602002015160ff16145b15611e5a576001915050611e60565b60009150505b92915050565b60008060026000848152602001908152602001600020600380602002604051908101604052809291906000905b82821015611f0f57838201600380602002604051908101604052809291908260038015611efb576020028201916000905b82829054906101000a900460ff1660ff1681526020019060010190602082600001049283019260010382029150808411611ec45790505b505050505081526020019060010190611e93565b505050509050600081600060038110611f2b57611f2a612b80565b5b6020020151600060038110611f4357611f42612b80565b5b602002015160ff1614158015611f8d5750600081600060038110611f6a57611f69612b80565b5b6020020151600160038110611f8257611f81612b80565b5b602002015160ff1614155b8015611fcd5750600081600060038110611faa57611fa9612b80565b5b6020020151600260038110611fc257611fc1612b80565b5b602002015160ff1614155b801561200d5750600081600160038110611fea57611fe9612b80565b5b602002015160006003811061200257612001612b80565b5b602002015160ff1614155b801561204d575060008160016003811061202a57612029612b80565b5b602002015160016003811061204257612041612b80565b5b602002015160ff1614155b801561208d575060008160016003811061206a57612069612b80565b5b602002015160026003811061208257612081612b80565b5b602002015160ff1614155b80156120cd57506000816002600381106120aa576120a9612b80565b5b60200201516000600381106120c2576120c1612b80565b5b602002015160ff1614155b801561210d57506000816002600381106120ea576120e9612b80565b5b602002015160016003811061210257612101612b80565b5b602002015160ff1614155b801561214d575060008160026003811061212a57612129612b80565b5b602002015160026003811061214257612141612b80565b5b602002015160ff1614155b1561215c576001915050612162565b60009150505b919050565b60405180606001604052806003905b61217e6121b6565b8152602001906001900390816121765790505090565b6040518060400160405280600290602082028036833780820191505090505090565b6040518060600160405280600390602082028036833780820191505090505090565b6000604051905090565b600080fd5b600080fd5b6000819050919050565b6121ff816121ec565b811461220a57600080fd5b50565b60008135905061221c816121f6565b92915050565b600060208284031215612238576122376121e2565b5b60006122468482850161220d565b91505092915050565b600081519050919050565b600082825260208201905092915050565b60005b8381101561228957808201518184015260208101905061226e565b60008484015250505050565b6000601f19601f8301169050919050565b60006122b18261224f565b6122bb818561225a565b93506122cb81856020860161226b565b6122d481612295565b840191505092915050565b600060208201905081810360008301526122f981846122a6565b905092915050565b60008060408385031215612318576123176121e2565b5b60006123268582860161220d565b92505060206123378582860161220d565b9150509250929050565b60008115159050919050565b61235681612341565b82525050565b6000602082019050612371600083018461234d565b92915050565b600060ff82169050919050565b61238d81612377565b811461239857600080fd5b50565b6000813590506123aa81612384565b92915050565b6000806000606084860312156123c9576123c86121e2565b5b60006123d78682870161220d565b93505060206123e88682870161239b565b92505060406123f98682870161239b565b9150509250925092565b600073ffffffffffffffffffffffffffffffffffffffff82169050919050565b600061242e82612403565b9050919050565b61243e81612423565b82525050565b60006020820190506124596000830184612435565b92915050565b612468816121ec565b82525050565b6000602082019050612483600083018461245f565b92915050565b600080fd5b600080fd5b7f4e487b7100000000000000000000000000000000000000000000000000000000600052604160045260246000fd5b6124cb82612295565b810181811067ffffffffffffffff821117156124ea576124e9612493565b5b80604052505050565b60006124fd6121d8565b905061250982826124c2565b919050565b600067ffffffffffffffff82111561252957612528612493565b5b61253282612295565b9050602081019050919050565b82818337600083830152505050565b600061256161255c8461250e565b6124f3565b90508281526020810184848401111561257d5761257c61248e565b5b61258884828561253f565b509392505050565b600082601f8301126125a5576125a4612489565b5b81356125b584826020860161254e565b91505092915050565b6000602082840312156125d4576125d36121e2565b5b600082013567ffffffffffffffff8111156125f2576125f16121e7565b5b6125fe84828501612590565b91505092915050565b7f4e487b7100000000000000000000000000000000000000000000000000000000600052602160045260246000fd5b6003811061264757612646612607565b5b50565b600081905061265882612636565b919050565b60006126688261264a565b9050919050565b6126788161265d565b82525050565b6000602082019050612693600083018461266f565b92915050565b6000806000606084860312156126b2576126b16121e2565b5b60006126c08682870161220d565b93505060206126d18682870161220d565b92505060406126e28682870161220d565b9150509250925092565b6126f581612377565b82525050565b600060208201905061271060008301846126ec565b92915050565b600081519050919050565b600082825260208201905092915050565b6000819050602082019050919050565b61274b81612423565b82525050565b600061275d8383612742565b60208301905092915050565b6000602082019050919050565b600061278182612716565b61278b8185612721565b935061279683612732565b8060005b838110156127c75781516127ae8882612751565b97506127b983612769565b92505060018101905061279a565b5085935050505092915050565b600060039050919050565b600081905092915050565b6000819050919050565b600060039050919050565b600081905092915050565b6000819050919050565b61281d81612377565b82525050565b600061282f8383612814565b60208301905092915050565b6000602082019050919050565b612851816127f4565b61285b81846127ff565b92506128668261280a565b8060005b8381101561289757815161287e8782612823565b96506128898361283b565b92505060018101905061286a565b505050505050565b60006128ab8383612848565b60608301905092915050565b6000602082019050919050565b6128cd816127d4565b6128d781846127df565b92506128e2826127ea565b8060005b838110156129135781516128fa878261289f565b9650612905836128b7565b9250506001810190506128e6565b505050505050565b600060029050919050565b600081905092915050565b6000819050919050565b61294481612341565b82525050565b6000612956838361293b565b60208301905092915050565b6000602082019050919050565b6129788161291b565b6129828184612926565b925061298d82612931565b8060005b838110156129be5781516129a5878261294a565b96506129b083612962565b925050600181019050612991565b505050505050565b60006102008201905081810360008301526129e1818a6122a6565b905081810360208301526129f58189612776565b9050612a0460408301886128c4565b612a12610160830187612435565b612a20610180830186612435565b612a2e6101a083018561266f565b612a3c6101c083018461296f565b98975050505050505050565b7f4e487b7100000000000000000000000000000000000000000000000000000000600052602260045260246000fd5b60006002820490506001821680612a8f57607f821691505b602082108103612aa257612aa1612a48565b5b50919050565b7f47616d65206973206e6f742066696e6973686564000000000000000000000000600082015250565b6000612ade60148361225a565b9150612ae982612aa8565b602082019050919050565b60006020820190508181036000830152612b0d81612ad1565b9050919050565b7f546865726520697320612077696e6e6572000000000000000000000000000000600082015250565b6000612b4a60118361225a565b9150612b5582612b14565b602082019050919050565b60006020820190508181036000830152612b7981612b3d565b9050919050565b7f4e487b7100000000000000000000000000000000000000000000000000000000600052603260045260246000fd5b7f596f7520617265206e6f742074686520706c6179657200000000000000000000600082015250565b6000612be560168361225a565b9150612bf082612baf565b602082019050919050565b60006020820190508181036000830152612c1481612bd8565b9050919050565b600081905092915050565b50565b6000612c36600083612c1b565b9150612c4182612c26565b600082019050919050565b6000612c5782612c29565b9150819050919050565b7f5472616e73666572206661696c65642e00000000000000000000000000000000600082015250565b6000612c9760108361225a565b9150612ca282612c61565b602082019050919050565b60006020820190508181036000830152612cc681612c8a565b9050919050565b7f49742773206e6f7420796f7572207475726e0000000000000000000000000000600082015250565b6000612d0360128361225a565b9150612d0e82612ccd565b602082019050919050565b60006020820190508181036000830152612d3281612cf6565b9050919050565b7f54686973206669656c6420697320616c72656164792074616b656e0000000000600082015250565b6000612d6f601b8361225a565b9150612d7a82612d39565b602082019050919050565b60006020820190508181036000830152612d9e81612d62565b9050919050565b7f47616d65206973206e6f7420706c6179696e6700000000000000000000000000600082015250565b6000612ddb60138361225a565b9150612de682612da5565b602082019050919050565b60006020820190508181036000830152612e0a81612dce565b9050919050565b6000606082019050612e2660008301866126ec565b612e3360208301856126ec565b612e406040830184612435565b949350505050565b7f4e487b7100000000000000000000000000000000000000000000000000000000600052601160045260246000fd5b6000612e8282612377565b9150612e8d83612377565b9250828203905060ff811115612ea657612ea5612e48565b5b92915050565b60008190508160005260206000209050919050565b60006020601f8301049050919050565b600082821b905092915050565b600060088302612f0e7fffffffffffffffffffffffffffffffffffffffffffffffffffffffffffffffff82612ed1565b612f188683612ed1565b95508019841693508086168417925050509392505050565b6000819050919050565b6000612f55612f50612f4b846121ec565b612f30565b6121ec565b9050919050565b6000819050919050565b612f6f83612f3a565b612f83612f7b82612f5c565b848454612ede565b825550505050565b600090565b612f98612f8b565b612fa3818484612f66565b505050565b5b81811015612fc757612fbc600082612f90565b600181019050612fa9565b5050565b601f82111561300c57612fdd81612eac565b612fe684612ec1565b81016020851015612ff5578190505b61300961300185612ec1565b830182612fa8565b50505b505050565b600082821c905092915050565b600061302f60001984600802613011565b1980831691505092915050565b6000613048838361301e565b9150826002028217905092915050565b6130618261224f565b67ffffffffffffffff81111561307a57613079612493565b5b6130848254612a77565b61308f828285612fcb565b600060209050601f8311600181146130c257600084156130b0578287015190505b6130ba858261303c565b865550613122565b601f1984166130d086612eac565b60005b828110156130f8578489015182556001820191506020850194506020810190506130d3565b868310156131155784890151613111601f89168261301e565b8355505b6001600288020188555050505b505050505050565b6000613135826121ec565b91507fffffffffffffffffffffffffffffffffffffffffffffffffffffffffffffffff820361316757613166612e48565b5b600182019050919050565b7f596f7520617265206e6f74207468652077696e6e657200000000000000000000600082015250565b60006131a860168361225a565b91506131b382613172565b602082019050919050565b600060208201905081810360008301526131d78161319b565b9050919050565b7f596f75206d7573742073656e6420302e30352065746865720000000000000000600082015250565b600061321460188361225a565b915061321f826131de565b602082019050919050565b6000602082019050818103600083015261324381613207565b9050919050565b7f47616d6520697320616c72656164792066756c6c000000000000000000000000600082015250565b600061328060148361225a565b915061328b8261324a565b602082019050919050565b600060208201905081810360008301526132af81613273565b9050919050565b60006132c182612377565b915060ff82036132d4576132d3612e48565b5b60018201905091905056fea2646970667358221220fe5e2dc346c3d4ce8ae6234965425f63fdab7a3133d93fd909df4fecf8b6322464736f6c63430008120033",
  "linkReferences": {},
  "deployedLinkReferences": {}
}