{
  "_format": "hh-sol-artifact-1",
  "contractName": "TicTacToe",
  "sourceName": "contracts/TicTacToe.sol",
  "abi": [
    {
      "inputs": [],
      "stateMutability": "nonpayable",
      "type": "constructor"
    },
    {
      "inputs": [
        {
          "internalType": "uint256",
          "name": "",
          "type": "uint256"
        },
        {
          "internalType": "uint256",
          "name": "",
          "type": "uint256"
        },
        {
          "internalType": "uint256",
          "name": "",
          "type": "uint256"
        }
      ],
      "name": "board",
      "outputs": [
        {
          "internalType": "uint8",
          "name": "",
          "type": "uint8"
        }
      ],
      "stateMutability": "view",
      "type": "function"
    },
    {
      "inputs": [
        {
          "internalType": "string",
          "name": "_name",
          "type": "string"
        }
      ],
      "name": "createGame",
      "outputs": [],
      "stateMutability": "payable",
      "type": "function"
    },
    {
      "inputs": [],
      "name": "gameCnt",
      "outputs": [
        {
          "internalType": "uint256",
          "name": "",
          "type": "uint256"
        }
      ],
      "stateMutability": "view",
      "type": "function"
    },
    {
      "inputs": [
        {
          "internalType": "uint256",
          "name": "gameNum",
          "type": "uint256"
        }
      ],
      "name": "getGameData",
      "outputs": [
        {
          "internalType": "string",
          "name": "",
          "type": "string"
        },
        {
          "internalType": "address[]",
          "name": "",
          "type": "address[]"
        },
        {
          "internalType": "uint8[3][3]",
          "name": "",
          "type": "uint8[3][3]"
        },
        {
          "internalType": "address",
          "name": "",
          "type": "address"
        },
        {
          "internalType": "address",
          "name": "",
          "type": "address"
        },
        {
          "internalType": "enum TicTacToe.GameStatus",
          "name": "",
          "type": "uint8"
        }
      ],
      "stateMutability": "view",
      "type": "function"
    },
    {
      "inputs": [
        {
          "internalType": "uint256",
          "name": "gameNum",
          "type": "uint256"
        }
      ],
      "name": "joinGame",
      "outputs": [],
      "stateMutability": "payable",
      "type": "function"
    },
    {
      "inputs": [
        {
          "internalType": "uint256",
          "name": "",
          "type": "uint256"
        }
      ],
      "name": "name",
      "outputs": [
        {
          "internalType": "string",
          "name": "",
          "type": "string"
        }
      ],
      "stateMutability": "view",
      "type": "function"
    },
    {
      "inputs": [
        {
          "internalType": "uint256",
          "name": "gameNum",
          "type": "uint256"
        },
        {
          "internalType": "uint8",
          "name": "x",
          "type": "uint8"
        },
        {
          "internalType": "uint8",
          "name": "y",
          "type": "uint8"
        }
      ],
      "name": "play",
      "outputs": [],
      "stateMutability": "nonpayable",
      "type": "function"
    },
    {
      "inputs": [
        {
          "internalType": "uint256",
          "name": "",
          "type": "uint256"
        },
        {
          "internalType": "uint256",
          "name": "",
          "type": "uint256"
        }
      ],
      "name": "players",
      "outputs": [
        {
          "internalType": "address",
          "name": "",
          "type": "address"
        }
      ],
      "stateMutability": "view",
      "type": "function"
    },
    {
      "inputs": [
        {
          "internalType": "uint256",
          "name": "",
          "type": "uint256"
        }
      ],
      "name": "status",
      "outputs": [
        {
          "internalType": "enum TicTacToe.GameStatus",
          "name": "",
          "type": "uint8"
        }
      ],
      "stateMutability": "view",
      "type": "function"
    },
    {
      "inputs": [
        {
          "internalType": "uint256",
          "name": "",
          "type": "uint256"
        }
      ],
      "name": "turn",
      "outputs": [
        {
          "internalType": "address",
          "name": "",
          "type": "address"
        }
      ],
      "stateMutability": "view",
      "type": "function"
    },
    {
      "inputs": [
        {
          "internalType": "uint256",
          "name": "",
          "type": "uint256"
        }
      ],
      "name": "winner",
      "outputs": [
        {
          "internalType": "address",
          "name": "",
          "type": "address"
        }
      ],
      "stateMutability": "view",
      "type": "function"
    }
  ],
  "bytecode": "0x608060405234801561001057600080fd5b506000600681905550612911806100286000396000f3fe60806040526004361061009b5760003560e01c806342d21ef71161006457806342d21ef71461018a578063998f1b80146101c7578063af2e76dd14610204578063b043d7d614610241578063b6a656651461027e578063efaa55a0146102c05761009b565b8062ad800c146100a05780631847b7fb146100dd5780631cbeae5e146101065780631e90857f146101435780632ebc05041461016e575b600080fd5b3480156100ac57600080fd5b506100c760048036038101906100c29190611c90565b6102dc565b6040516100d49190611d56565b60405180910390f35b3480156100e957600080fd5b5061010460048036038101906100ff9190611db1565b61037c565b005b34801561011257600080fd5b5061012d60048036038101906101289190611c90565b610974565b60405161013a9190611e45565b60405180910390f35b34801561014f57600080fd5b506101586109a7565b6040516101659190611e6f565b60405180910390f35b61018860048036038101906101839190611fbf565b6109ad565b005b34801561019657600080fd5b506101b160048036038101906101ac9190611c90565b610a50565b6040516101be919061207f565b60405180910390f35b3480156101d357600080fd5b506101ee60048036038101906101e9919061209a565b610a70565b6040516101fb9190611e45565b60405180910390f35b34801561021057600080fd5b5061022b600480360381019061022691906120da565b610abe565b604051610238919061213c565b60405180910390f35b34801561024d57600080fd5b5061026860048036038101906102639190611c90565b610b07565b6040516102759190611e45565b60405180910390f35b34801561028a57600080fd5b506102a560048036038101906102a09190611c90565b610b3a565b6040516102b79695949392919061235c565b60405180910390f35b6102da60048036038101906102d59190611c90565b610dce565b005b600060205280600052604060002060009150905080546102fb906123fe565b80601f0160208091040260200160405190810160405280929190818152602001828054610327906123fe565b80156103745780601f1061034957610100808354040283529160200191610374565b820191906000526020600020905b81548152906001019060200180831161035757829003601f168201915b505050505081565b3373ffffffffffffffffffffffffffffffffffffffff166003600085815260200190815260200160002060009054906101000a900473ffffffffffffffffffffffffffffffffffffffff1673ffffffffffffffffffffffffffffffffffffffff161461041d576040517f08c379a00000000000000000000000000000000000000000000000000000000081526004016104149061247c565b60405180910390fd5b6000600260008581526020019081526020016000208360ff16600381106104475761044661249c565b5b018260ff166003811061045d5761045c61249c565b5b602091828204019190069054906101000a900460ff1660ff16146104b6576040517f08c379a00000000000000000000000000000000000000000000000000000000081526004016104ad90612517565b60405180910390fd5b600160028111156104ca576104c9612008565b5b6005600085815260200190815260200160002060009054906101000a900460ff1660028111156104fd576104fc612008565b5b1461053d576040517f08c379a000000000000000000000000000000000000000000000000000000000815260040161053490612583565b60405180910390fd5b6000600160008581526020019081526020016000206000815481106105655761056461249c565b5b9060005260206000200160009054906101000a900473ffffffffffffffffffffffffffffffffffffffff1673ffffffffffffffffffffffffffffffffffffffff166003600086815260200190815260200160002060009054906101000a900473ffffffffffffffffffffffffffffffffffffffff1673ffffffffffffffffffffffffffffffffffffffff16146105fc5760026105ff565b60015b905080600260008681526020019081526020016000208460ff166003811061062a5761062961249c565b5b018360ff16600381106106405761063f61249c565b5b602091828204019190066101000a81548160ff021916908360ff16021790555061066a8482610fb0565b1561076a576001600085815260200190815260200160002060018261068f91906125d2565b60ff16815481106106a3576106a261249c565b5b9060005260206000200160009054906101000a900473ffffffffffffffffffffffffffffffffffffffff166004600086815260200190815260200160002060006101000a81548173ffffffffffffffffffffffffffffffffffffffff021916908373ffffffffffffffffffffffffffffffffffffffff16021790555060026005600086815260200190815260200160002060006101000a81548160ff0219169083600281111561075657610755612008565b5b0217905550610764846113e7565b5061096f565b600160008581526020019081526020016000206000815481106107905761078f61249c565b5b9060005260206000200160009054906101000a900473ffffffffffffffffffffffffffffffffffffffff1673ffffffffffffffffffffffffffffffffffffffff166003600086815260200190815260200160002060009054906101000a900473ffffffffffffffffffffffffffffffffffffffff1673ffffffffffffffffffffffffffffffffffffffff161461087657600160008581526020019081526020016000206000815481106108465761084561249c565b5b9060005260206000200160009054906101000a900473ffffffffffffffffffffffffffffffffffffffff166108c8565b6001600085815260200190815260200160002060018154811061089c5761089b61249c565b5b9060005260206000200160009054906101000a900473ffffffffffffffffffffffffffffffffffffffff165b6003600086815260200190815260200160002060006101000a81548173ffffffffffffffffffffffffffffffffffffffff021916908373ffffffffffffffffffffffffffffffffffffffff160217905550610922846115f9565b1561096d5760026005600086815260200190815260200160002060006101000a81548160ff0219169083600281111561095e5761095d612008565b5b021790555061096c846118fa565b5b505b505050565b60046020528060005260406000206000915054906101000a900473ffffffffffffffffffffffffffffffffffffffff1681565b60065481565b80600080600654815260200190815260200160002090805190602001906109d5929190611b54565b506109e1600654610dce565b3360036000600654815260200190815260200160002060006101000a81548173ffffffffffffffffffffffffffffffffffffffff021916908373ffffffffffffffffffffffffffffffffffffffff16021790555060066000815480929190610a4890612606565b919050555050565b60056020528060005260406000206000915054906101000a900460ff1681565b60016020528160005260406000208181548110610a8c57600080fd5b906000526020600020016000915091509054906101000a900473ffffffffffffffffffffffffffffffffffffffff1681565b60026020528260005260406000208260038110610ada57600080fd5b018160038110610ae957600080fd5b6020918282040191900692509250509054906101000a900460ff1681565b60036020528060005260406000206000915054906101000a900473ffffffffffffffffffffffffffffffffffffffff1681565b606080610b45611bda565b600080600080600088815260200190815260200160002060016000898152602001908152602001600020600260008a8152602001908152602001600020600360008b815260200190815260200160002060009054906101000a900473ffffffffffffffffffffffffffffffffffffffff16600460008c815260200190815260200160002060009054906101000a900473ffffffffffffffffffffffffffffffffffffffff16600560008d815260200190815260200160002060009054906101000a900460ff16858054610c17906123fe565b80601f0160208091040260200160405190810160405280929190818152602001828054610c43906123fe565b8015610c905780601f10610c6557610100808354040283529160200191610c90565b820191906000526020600020905b815481529060010190602001808311610c7357829003601f168201915b5050505050955084805480602002602001604051908101604052809291908181526020018280548015610d1857602002820191906000526020600020905b8160009054906101000a900473ffffffffffffffffffffffffffffffffffffffff1673ffffffffffffffffffffffffffffffffffffffff1681526020019060010190808311610cce575b5050505050945083600380602002604051908101604052809291906000905b82821015610db357838201600380602002604051908101604052809291908260038015610d9f576020028201916000905b82829054906101000a900460ff1660ff1681526020019060010190602082600001049283019260010382029150808411610d685790505b505050505081526020019060010190610d37565b50505050935095509550955095509550955091939550919395565b66b1a2bc2ec500003414610e17576040517f08c379a0000000000000000000000000000000000000000000000000000000008152600401610e0e9061269b565b60405180910390fd5b60006002811115610e2b57610e2a612008565b5b6005600083815260200190815260200160002060009054906101000a900460ff166002811115610e5e57610e5d612008565b5b14610e9e576040517f08c379a0000000000000000000000000000000000000000000000000000000008152600401610e9590612707565b60405180910390fd5b60016000828152602001908152602001600020339080600181540180825580915050600190039060005260206000200160009091909190916101000a81548173ffffffffffffffffffffffffffffffffffffffff021916908373ffffffffffffffffffffffffffffffffffffffff1602179055506002600160008381526020019081526020016000208054905014610f705760006005600083815260200190815260200160002060006101000a81548160ff02191690836002811115610f6757610f66612008565b5b02179055610fac565b60016005600083815260200190815260200160002060006101000a81548160ff02191690836002811115610fa757610fa6612008565b5b021790555b5050565b60008060026000858152602001908152602001600020600380602002604051908101604052809291906000905b8282101561105957838201600380602002604051908101604052809291908260038015611045576020028201916000905b82829054906101000a900460ff1660ff168152602001906001019060208260000104928301926001038202915080841161100e5790505b505050505081526020019060010190610fdd565b50505050905060005b60038160ff161015611152578360ff16828260ff16600381106110885761108761249c565b5b60200201516000600381106110a05761109f61249c565b5b602002015160ff161480156110ec57508360ff16828260ff16600381106110ca576110c961249c565b5b60200201516001600381106110e2576110e161249c565b5b602002015160ff16145b801561112f57508360ff16828260ff166003811061110d5761110c61249c565b5b60200201516002600381106111255761112461249c565b5b602002015160ff16145b1561113f576001925050506113e1565b808061114a90612727565b915050611062565b5060005b60038160ff161015611246578360ff168260006003811061117a5761117961249c565b5b60200201518260ff16600381106111945761119361249c565b5b602002015160ff161480156111e057508360ff16826001600381106111bc576111bb61249c565b5b60200201518260ff16600381106111d6576111d561249c565b5b602002015160ff16145b801561122357508360ff16826002600381106111ff576111fe61249c565b5b60200201518260ff16600381106112195761121861249c565b5b602002015160ff16145b15611233576001925050506113e1565b808061123e90612727565b915050611156565b508260ff168160006003811061125f5761125e61249c565b5b60200201516000600381106112775761127661249c565b5b602002015160ff161480156112c157508260ff168160016003811061129f5761129e61249c565b5b60200201516001600381106112b7576112b661249c565b5b602002015160ff16145b801561130257508260ff16816002600381106112e0576112df61249c565b5b60200201516002600381106112f8576112f761249c565b5b602002015160ff16145b156113115760019150506113e1565b8260ff16816000600381106113295761132861249c565b5b60200201516002600381106113415761134061249c565b5b602002015160ff1614801561138b57508260ff16816001600381106113695761136861249c565b5b60200201516001600381106113815761138061249c565b5b602002015160ff16145b80156113cc57508260ff16816002600381106113aa576113a961249c565b5b60200201516000600381106113c2576113c161249c565b5b602002015160ff16145b156113db5760019150506113e1565b60009150505b92915050565b6002808111156113fa576113f9612008565b5b6005600083815260200190815260200160002060009054906101000a900460ff16600281111561142d5761142c612008565b5b1461146d576040517f08c379a00000000000000000000000000000000000000000000000000000000081526004016114649061279d565b60405180910390fd5b6004600082815260200190815260200160002060009054906101000a900473ffffffffffffffffffffffffffffffffffffffff1673ffffffffffffffffffffffffffffffffffffffff163373ffffffffffffffffffffffffffffffffffffffff161461150e576040517f08c379a000000000000000000000000000000000000000000000000000000000815260040161150590612809565b60405180910390fd5b60006004600083815260200190815260200160002060009054906101000a900473ffffffffffffffffffffffffffffffffffffffff1673ffffffffffffffffffffffffffffffffffffffff1667016345785d8a000060405161156f9061285a565b60006040518083038185875af1925050503d80600081146115ac576040519150601f19603f3d011682016040523d82523d6000602084013e6115b1565b606091505b50509050806115f5576040517f08c379a00000000000000000000000000000000000000000000000000000000081526004016115ec906128bb565b60405180910390fd5b5050565b60008060026000848152602001908152602001600020600380602002604051908101604052809291906000905b828210156116a25783820160038060200260405190810160405280929190826003801561168e576020028201916000905b82829054906101000a900460ff1660ff16815260200190600101906020826000010492830192600103820291508084116116575790505b505050505081526020019060010190611626565b5050505090506000816000600381106116be576116bd61249c565b5b60200201516000600381106116d6576116d561249c565b5b602002015160ff161415801561172057506000816000600381106116fd576116fc61249c565b5b60200201516001600381106117155761171461249c565b5b602002015160ff1614155b8015611760575060008160006003811061173d5761173c61249c565b5b60200201516002600381106117555761175461249c565b5b602002015160ff1614155b80156117a0575060008160016003811061177d5761177c61249c565b5b60200201516000600381106117955761179461249c565b5b602002015160ff1614155b80156117e057506000816001600381106117bd576117bc61249c565b5b60200201516001600381106117d5576117d461249c565b5b602002015160ff1614155b801561182057506000816001600381106117fd576117fc61249c565b5b60200201516002600381106118155761181461249c565b5b602002015160ff1614155b8015611860575060008160026003811061183d5761183c61249c565b5b60200201516000600381106118555761185461249c565b5b602002015160ff1614155b80156118a0575060008160026003811061187d5761187c61249c565b5b60200201516001600381106118955761189461249c565b5b602002015160ff1614155b80156118e057506000816002600381106118bd576118bc61249c565b5b60200201516002600381106118d5576118d461249c565b5b602002015160ff1614155b156118ef5760019150506118f5565b60009150505b919050565b60028081111561190d5761190c612008565b5b6005600083815260200190815260200160002060009054906101000a900460ff1660028111156119405761193f612008565b5b14611980576040517f08c379a00000000000000000000000000000000000000000000000000000000081526004016119779061279d565b60405180910390fd5b6000600160008381526020019081526020016000206000815481106119a8576119a761249c565b5b9060005260206000200160009054906101000a900473ffffffffffffffffffffffffffffffffffffffff1673ffffffffffffffffffffffffffffffffffffffff1666b1a2bc2ec500006040516119fd9061285a565b60006040518083038185875af1925050503d8060008114611a3a576040519150601f19603f3d011682016040523d82523d6000602084013e611a3f565b606091505b50509050600060016000848152602001908152602001600020600181548110611a6b57611a6a61249c565b5b9060005260206000200160009054906101000a900473ffffffffffffffffffffffffffffffffffffffff1673ffffffffffffffffffffffffffffffffffffffff1666b1a2bc2ec50000604051611ac09061285a565b60006040518083038185875af1925050503d8060008114611afd576040519150601f19603f3d011682016040523d82523d6000602084013e611b02565b606091505b50509050818015611b105750805b611b4f576040517f08c379a0000000000000000000000000000000000000000000000000000000008152600401611b46906128bb565b60405180910390fd5b505050565b828054611b60906123fe565b90600052602060002090601f016020900481019282611b825760008555611bc9565b82601f10611b9b57805160ff1916838001178555611bc9565b82800160010185558215611bc9579182015b82811115611bc8578251825591602001919060010190611bad565b5b509050611bd69190611c07565b5090565b60405180606001604052806003905b611bf1611c24565b815260200190600190039081611be95790505090565b5b80821115611c20576000816000905550600101611c08565b5090565b6040518060600160405280600390602082028036833780820191505090505090565b6000604051905090565b600080fd5b600080fd5b6000819050919050565b611c6d81611c5a565b8114611c7857600080fd5b50565b600081359050611c8a81611c64565b92915050565b600060208284031215611ca657611ca5611c50565b5b6000611cb484828501611c7b565b91505092915050565b600081519050919050565b600082825260208201905092915050565b60005b83811015611cf7578082015181840152602081019050611cdc565b83811115611d06576000848401525b50505050565b6000601f19601f8301169050919050565b6000611d2882611cbd565b611d328185611cc8565b9350611d42818560208601611cd9565b611d4b81611d0c565b840191505092915050565b60006020820190508181036000830152611d708184611d1d565b905092915050565b600060ff82169050919050565b611d8e81611d78565b8114611d9957600080fd5b50565b600081359050611dab81611d85565b92915050565b600080600060608486031215611dca57611dc9611c50565b5b6000611dd886828701611c7b565b9350506020611de986828701611d9c565b9250506040611dfa86828701611d9c565b9150509250925092565b600073ffffffffffffffffffffffffffffffffffffffff82169050919050565b6000611e2f82611e04565b9050919050565b611e3f81611e24565b82525050565b6000602082019050611e5a6000830184611e36565b92915050565b611e6981611c5a565b82525050565b6000602082019050611e846000830184611e60565b92915050565b600080fd5b600080fd5b7f4e487b7100000000000000000000000000000000000000000000000000000000600052604160045260246000fd5b611ecc82611d0c565b810181811067ffffffffffffffff82111715611eeb57611eea611e94565b5b80604052505050565b6000611efe611c46565b9050611f0a8282611ec3565b919050565b600067ffffffffffffffff821115611f2a57611f29611e94565b5b611f3382611d0c565b9050602081019050919050565b82818337600083830152505050565b6000611f62611f5d84611f0f565b611ef4565b905082815260208101848484011115611f7e57611f7d611e8f565b5b611f89848285611f40565b509392505050565b600082601f830112611fa657611fa5611e8a565b5b8135611fb6848260208601611f4f565b91505092915050565b600060208284031215611fd557611fd4611c50565b5b600082013567ffffffffffffffff811115611ff357611ff2611c55565b5b611fff84828501611f91565b91505092915050565b7f4e487b7100000000000000000000000000000000000000000000000000000000600052602160045260246000fd5b6003811061204857612047612008565b5b50565b600081905061205982612037565b919050565b60006120698261204b565b9050919050565b6120798161205e565b82525050565b60006020820190506120946000830184612070565b92915050565b600080604083850312156120b1576120b0611c50565b5b60006120bf85828601611c7b565b92505060206120d085828601611c7b565b9150509250929050565b6000806000606084860312156120f3576120f2611c50565b5b600061210186828701611c7b565b935050602061211286828701611c7b565b925050604061212386828701611c7b565b9150509250925092565b61213681611d78565b82525050565b6000602082019050612151600083018461212d565b92915050565b600081519050919050565b600082825260208201905092915050565b6000819050602082019050919050565b61218c81611e24565b82525050565b600061219e8383612183565b60208301905092915050565b6000602082019050919050565b60006121c282612157565b6121cc8185612162565b93506121d783612173565b8060005b838110156122085781516121ef8882612192565b97506121fa836121aa565b9250506001810190506121db565b5085935050505092915050565b600060039050919050565b600081905092915050565b6000819050919050565b600060039050919050565b600081905092915050565b6000819050919050565b61225e81611d78565b82525050565b60006122708383612255565b60208301905092915050565b6000602082019050919050565b61229281612235565b61229c8184612240565b92506122a78261224b565b8060005b838110156122d85781516122bf8782612264565b96506122ca8361227c565b9250506001810190506122ab565b505050505050565b60006122ec8383612289565b60608301905092915050565b6000602082019050919050565b61230e81612215565b6123188184612220565b92506123238261222b565b8060005b8381101561235457815161233b87826122e0565b9650612346836122f8565b925050600181019050612327565b505050505050565b60006101c08201905081810360008301526123778189611d1d565b9050818103602083015261238b81886121b7565b905061239a6040830187612305565b6123a8610160830186611e36565b6123b6610180830185611e36565b6123c46101a0830184612070565b979650505050505050565b7f4e487b7100000000000000000000000000000000000000000000000000000000600052602260045260246000fd5b6000600282049050600182168061241657607f821691505b6020821081141561242a576124296123cf565b5b50919050565b7f49742773206e6f7420796f7572207475726e0000000000000000000000000000600082015250565b6000612466601283611cc8565b915061247182612430565b602082019050919050565b6000602082019050818103600083015261249581612459565b9050919050565b7f4e487b7100000000000000000000000000000000000000000000000000000000600052603260045260246000fd5b7f54686973206669656c6420697320616c72656164792074616b656e0000000000600082015250565b6000612501601b83611cc8565b915061250c826124cb565b602082019050919050565b60006020820190508181036000830152612530816124f4565b9050919050565b7f47616d65206973206e6f7420706c6179696e6700000000000000000000000000600082015250565b600061256d601383611cc8565b915061257882612537565b602082019050919050565b6000602082019050818103600083015261259c81612560565b9050919050565b7f4e487b7100000000000000000000000000000000000000000000000000000000600052601160045260246000fd5b60006125dd82611d78565b91506125e883611d78565b9250828210156125fb576125fa6125a3565b5b828203905092915050565b600061261182611c5a565b91507fffffffffffffffffffffffffffffffffffffffffffffffffffffffffffffffff821415612644576126436125a3565b5b600182019050919050565b7f596f75206d7573742073656e6420302e30352065746865720000000000000000600082015250565b6000612685601883611cc8565b91506126908261264f565b602082019050919050565b600060208201905081810360008301526126b481612678565b9050919050565b7f47616d6520697320616c72656164792066756c6c000000000000000000000000600082015250565b60006126f1601483611cc8565b91506126fc826126bb565b602082019050919050565b60006020820190508181036000830152612720816126e4565b9050919050565b600061273282611d78565b915060ff821415612746576127456125a3565b5b600182019050919050565b7f47616d65206973206e6f742066696e6973686564000000000000000000000000600082015250565b6000612787601483611cc8565b915061279282612751565b602082019050919050565b600060208201905081810360008301526127b68161277a565b9050919050565b7f596f7520617265206e6f74207468652077696e6e657200000000000000000000600082015250565b60006127f3601683611cc8565b91506127fe826127bd565b602082019050919050565b60006020820190508181036000830152612822816127e6565b9050919050565b600081905092915050565b50565b6000612844600083612829565b915061284f82612834565b600082019050919050565b600061286582612837565b9150819050919050565b7f5472616e73666572206661696c65642e00000000000000000000000000000000600082015250565b60006128a5601083611cc8565b91506128b08261286f565b602082019050919050565b600060208201905081810360008301526128d481612898565b905091905056fea2646970667358221220efdeaeb637b84a182eab6bb544f6b01bc0bcc0727528ad9b76126483ab4e2e0264736f6c63430008090033",
  "linkReferences": {},
  "deployedLinkReferences": {}
}