{
  "_format": "hh-sol-artifact-1",
  "contractName": "TicTacToe",
  "sourceName": "contracts/TicTacToe.sol",
  "abi": [
    {
      "inputs": [],
      "stateMutability": "nonpayable",
      "type": "constructor"
    },
    {
      "inputs": [
        {
          "internalType": "uint256",
          "name": "",
          "type": "uint256"
        },
        {
          "internalType": "uint256",
          "name": "",
          "type": "uint256"
        },
        {
          "internalType": "uint256",
          "name": "",
          "type": "uint256"
        }
      ],
      "name": "board",
      "outputs": [
        {
          "internalType": "uint8",
          "name": "",
          "type": "uint8"
        }
      ],
      "stateMutability": "view",
      "type": "function"
    },
    {
      "inputs": [
        {
          "internalType": "string",
          "name": "_name",
          "type": "string"
        }
      ],
      "name": "createGame",
      "outputs": [],
      "stateMutability": "payable",
      "type": "function"
    },
    {
      "inputs": [],
      "name": "gameCnt",
      "outputs": [
        {
          "internalType": "uint256",
          "name": "",
          "type": "uint256"
        }
      ],
      "stateMutability": "view",
      "type": "function"
    },
    {
      "inputs": [
        {
          "internalType": "uint256",
          "name": "gameNum",
          "type": "uint256"
        }
      ],
      "name": "getGameData",
      "outputs": [
        {
          "internalType": "string",
          "name": "",
          "type": "string"
        },
        {
          "internalType": "address[]",
          "name": "",
          "type": "address[]"
        },
        {
          "internalType": "uint8[3][3]",
          "name": "",
          "type": "uint8[3][3]"
        },
        {
          "internalType": "address",
          "name": "",
          "type": "address"
        },
        {
          "internalType": "address",
          "name": "",
          "type": "address"
        },
        {
          "internalType": "enum TicTacToe.GameStatus",
          "name": "",
          "type": "uint8"
        }
      ],
      "stateMutability": "view",
      "type": "function"
    },
    {
      "inputs": [
        {
          "internalType": "uint256",
          "name": "gameNum",
          "type": "uint256"
        }
      ],
      "name": "joinGame",
      "outputs": [],
      "stateMutability": "payable",
      "type": "function"
    },
    {
      "inputs": [
        {
          "internalType": "uint256",
          "name": "",
          "type": "uint256"
        }
      ],
      "name": "name",
      "outputs": [
        {
          "internalType": "string",
          "name": "",
          "type": "string"
        }
      ],
      "stateMutability": "view",
      "type": "function"
    },
    {
      "inputs": [
        {
          "internalType": "uint256",
          "name": "gameNum",
          "type": "uint256"
        },
        {
          "internalType": "uint8",
          "name": "x",
          "type": "uint8"
        },
        {
          "internalType": "uint8",
          "name": "y",
          "type": "uint8"
        }
      ],
      "name": "play",
      "outputs": [],
      "stateMutability": "nonpayable",
      "type": "function"
    },
    {
      "inputs": [
        {
          "internalType": "uint256",
          "name": "",
          "type": "uint256"
        },
        {
          "internalType": "uint256",
          "name": "",
          "type": "uint256"
        }
      ],
      "name": "players",
      "outputs": [
        {
          "internalType": "address",
          "name": "",
          "type": "address"
        }
      ],
      "stateMutability": "view",
      "type": "function"
    },
    {
      "inputs": [
        {
          "internalType": "uint256",
          "name": "",
          "type": "uint256"
        }
      ],
      "name": "status",
      "outputs": [
        {
          "internalType": "enum TicTacToe.GameStatus",
          "name": "",
          "type": "uint8"
        }
      ],
      "stateMutability": "view",
      "type": "function"
    },
    {
      "inputs": [
        {
          "internalType": "uint256",
          "name": "",
          "type": "uint256"
        }
      ],
      "name": "turn",
      "outputs": [
        {
          "internalType": "address",
          "name": "",
          "type": "address"
        }
      ],
      "stateMutability": "view",
      "type": "function"
    },
    {
      "inputs": [
        {
          "internalType": "uint256",
          "name": "",
          "type": "uint256"
        }
      ],
      "name": "winner",
      "outputs": [
        {
          "internalType": "address",
          "name": "",
          "type": "address"
        }
      ],
      "stateMutability": "view",
      "type": "function"
    }
  ],
  "bytecode": "0x608060405234801561001057600080fd5b5060006006819055506128d1806100286000396000f3fe60806040526004361061009b5760003560e01c806342d21ef71161006457806342d21ef71461018a578063998f1b80146101c7578063af2e76dd14610204578063b043d7d614610241578063b6a656651461027e578063efaa55a0146102c05761009b565b8062ad800c146100a05780631847b7fb146100dd5780631cbeae5e146101065780631e90857f146101435780632ebc05041461016e575b600080fd5b3480156100ac57600080fd5b506100c760048036038101906100c29190611c84565b6102dc565b6040516100d49190611d4a565b60405180910390f35b3480156100e957600080fd5b5061010460048036038101906100ff9190611da5565b61037c565b005b34801561011257600080fd5b5061012d60048036038101906101289190611c84565b610968565b60405161013a9190611e39565b60405180910390f35b34801561014f57600080fd5b5061015861099b565b6040516101659190611e63565b60405180910390f35b61018860048036038101906101839190611fb3565b6109a1565b005b34801561019657600080fd5b506101b160048036038101906101ac9190611c84565b610a44565b6040516101be9190612073565b60405180910390f35b3480156101d357600080fd5b506101ee60048036038101906101e9919061208e565b610a64565b6040516101fb9190611e39565b60405180910390f35b34801561021057600080fd5b5061022b600480360381019061022691906120ce565b610ab2565b6040516102389190612130565b60405180910390f35b34801561024d57600080fd5b5061026860048036038101906102639190611c84565b610afb565b6040516102759190611e39565b60405180910390f35b34801561028a57600080fd5b506102a560048036038101906102a09190611c84565b610b2e565b6040516102b796959493929190612350565b60405180910390f35b6102da60048036038101906102d59190611c84565b610dc2565b005b600060205280600052604060002060009150905080546102fb906123f2565b80601f0160208091040260200160405190810160405280929190818152602001828054610327906123f2565b80156103745780601f1061034957610100808354040283529160200191610374565b820191906000526020600020905b81548152906001019060200180831161035757829003601f168201915b505050505081565b3373ffffffffffffffffffffffffffffffffffffffff166003600085815260200190815260200160002060009054906101000a900473ffffffffffffffffffffffffffffffffffffffff1673ffffffffffffffffffffffffffffffffffffffff161461041d576040517f08c379a000000000000000000000000000000000000000000000000000000000815260040161041490612470565b60405180910390fd5b6000600260008581526020019081526020016000208360ff166003811061044757610446612490565b5b018260ff166003811061045d5761045c612490565b5b602091828204019190069054906101000a900460ff1660ff16146104b6576040517f08c379a00000000000000000000000000000000000000000000000000000000081526004016104ad9061250b565b60405180910390fd5b600160028111156104ca576104c9611ffc565b5b6005600085815260200190815260200160002060009054906101000a900460ff1660028111156104fd576104fc611ffc565b5b1461053d576040517f08c379a000000000000000000000000000000000000000000000000000000000815260040161053490612577565b60405180910390fd5b60006001600085815260200190815260200160002060008154811061056557610564612490565b5b9060005260206000200160009054906101000a900473ffffffffffffffffffffffffffffffffffffffff1673ffffffffffffffffffffffffffffffffffffffff166003600086815260200190815260200160002060009054906101000a900473ffffffffffffffffffffffffffffffffffffffff1673ffffffffffffffffffffffffffffffffffffffff16146105fc5760026105ff565b60015b905080600260008681526020019081526020016000208460ff166003811061062a57610629612490565b5b018360ff16600381106106405761063f612490565b5b602091828204019190066101000a81548160ff021916908360ff16021790555061066a8482610fa4565b1561075e57600160008581526020019081526020016000208160ff168154811061069757610696612490565b5b9060005260206000200160009054906101000a900473ffffffffffffffffffffffffffffffffffffffff166004600086815260200190815260200160002060006101000a81548173ffffffffffffffffffffffffffffffffffffffff021916908373ffffffffffffffffffffffffffffffffffffffff16021790555060026005600086815260200190815260200160002060006101000a81548160ff0219169083600281111561074a57610749611ffc565b5b0217905550610758846113db565b50610963565b6001600085815260200190815260200160002060008154811061078457610783612490565b5b9060005260206000200160009054906101000a900473ffffffffffffffffffffffffffffffffffffffff1673ffffffffffffffffffffffffffffffffffffffff166003600086815260200190815260200160002060009054906101000a900473ffffffffffffffffffffffffffffffffffffffff1673ffffffffffffffffffffffffffffffffffffffff161461086a576001600085815260200190815260200160002060008154811061083a57610839612490565b5b9060005260206000200160009054906101000a900473ffffffffffffffffffffffffffffffffffffffff166108bc565b600160008581526020019081526020016000206001815481106108905761088f612490565b5b9060005260206000200160009054906101000a900473ffffffffffffffffffffffffffffffffffffffff165b6003600086815260200190815260200160002060006101000a81548173ffffffffffffffffffffffffffffffffffffffff021916908373ffffffffffffffffffffffffffffffffffffffff160217905550610916846115ed565b156109615760026005600086815260200190815260200160002060006101000a81548160ff0219169083600281111561095257610951611ffc565b5b0217905550610960846118ee565b5b505b505050565b60046020528060005260406000206000915054906101000a900473ffffffffffffffffffffffffffffffffffffffff1681565b60065481565b80600080600654815260200190815260200160002090805190602001906109c9929190611b48565b506109d5600654610dc2565b3360036000600654815260200190815260200160002060006101000a81548173ffffffffffffffffffffffffffffffffffffffff021916908373ffffffffffffffffffffffffffffffffffffffff16021790555060066000815480929190610a3c906125c6565b919050555050565b60056020528060005260406000206000915054906101000a900460ff1681565b60016020528160005260406000208181548110610a8057600080fd5b906000526020600020016000915091509054906101000a900473ffffffffffffffffffffffffffffffffffffffff1681565b60026020528260005260406000208260038110610ace57600080fd5b018160038110610add57600080fd5b6020918282040191900692509250509054906101000a900460ff1681565b60036020528060005260406000206000915054906101000a900473ffffffffffffffffffffffffffffffffffffffff1681565b606080610b39611bce565b600080600080600088815260200190815260200160002060016000898152602001908152602001600020600260008a8152602001908152602001600020600360008b815260200190815260200160002060009054906101000a900473ffffffffffffffffffffffffffffffffffffffff16600460008c815260200190815260200160002060009054906101000a900473ffffffffffffffffffffffffffffffffffffffff16600560008d815260200190815260200160002060009054906101000a900460ff16858054610c0b906123f2565b80601f0160208091040260200160405190810160405280929190818152602001828054610c37906123f2565b8015610c845780601f10610c5957610100808354040283529160200191610c84565b820191906000526020600020905b815481529060010190602001808311610c6757829003601f168201915b5050505050955084805480602002602001604051908101604052809291908181526020018280548015610d0c57602002820191906000526020600020905b8160009054906101000a900473ffffffffffffffffffffffffffffffffffffffff1673ffffffffffffffffffffffffffffffffffffffff1681526020019060010190808311610cc2575b5050505050945083600380602002604051908101604052809291906000905b82821015610da757838201600380602002604051908101604052809291908260038015610d93576020028201916000905b82829054906101000a900460ff1660ff1681526020019060010190602082600001049283019260010382029150808411610d5c5790505b505050505081526020019060010190610d2b565b50505050935095509550955095509550955091939550919395565b66b1a2bc2ec500003414610e0b576040517f08c379a0000000000000000000000000000000000000000000000000000000008152600401610e029061265b565b60405180910390fd5b60006002811115610e1f57610e1e611ffc565b5b6005600083815260200190815260200160002060009054906101000a900460ff166002811115610e5257610e51611ffc565b5b14610e92576040517f08c379a0000000000000000000000000000000000000000000000000000000008152600401610e89906126c7565b60405180910390fd5b60016000828152602001908152602001600020339080600181540180825580915050600190039060005260206000200160009091909190916101000a81548173ffffffffffffffffffffffffffffffffffffffff021916908373ffffffffffffffffffffffffffffffffffffffff1602179055506002600160008381526020019081526020016000208054905014610f645760006005600083815260200190815260200160002060006101000a81548160ff02191690836002811115610f5b57610f5a611ffc565b5b02179055610fa0565b60016005600083815260200190815260200160002060006101000a81548160ff02191690836002811115610f9b57610f9a611ffc565b5b021790555b5050565b60008060026000858152602001908152602001600020600380602002604051908101604052809291906000905b8282101561104d57838201600380602002604051908101604052809291908260038015611039576020028201916000905b82829054906101000a900460ff1660ff16815260200190600101906020826000010492830192600103820291508084116110025790505b505050505081526020019060010190610fd1565b50505050905060005b60038160ff161015611146578360ff16828260ff166003811061107c5761107b612490565b5b602002015160006003811061109457611093612490565b5b602002015160ff161480156110e057508360ff16828260ff16600381106110be576110bd612490565b5b60200201516001600381106110d6576110d5612490565b5b602002015160ff16145b801561112357508360ff16828260ff166003811061110157611100612490565b5b602002015160026003811061111957611118612490565b5b602002015160ff16145b15611133576001925050506113d5565b808061113e906126e7565b915050611056565b5060005b60038160ff16101561123a578360ff168260006003811061116e5761116d612490565b5b60200201518260ff166003811061118857611187612490565b5b602002015160ff161480156111d457508360ff16826001600381106111b0576111af612490565b5b60200201518260ff16600381106111ca576111c9612490565b5b602002015160ff16145b801561121757508360ff16826002600381106111f3576111f2612490565b5b60200201518260ff166003811061120d5761120c612490565b5b602002015160ff16145b15611227576001925050506113d5565b8080611232906126e7565b91505061114a565b508260ff168160006003811061125357611252612490565b5b602002015160006003811061126b5761126a612490565b5b602002015160ff161480156112b557508260ff168160016003811061129357611292612490565b5b60200201516001600381106112ab576112aa612490565b5b602002015160ff16145b80156112f657508260ff16816002600381106112d4576112d3612490565b5b60200201516002600381106112ec576112eb612490565b5b602002015160ff16145b156113055760019150506113d5565b8260ff168160006003811061131d5761131c612490565b5b602002015160026003811061133557611334612490565b5b602002015160ff1614801561137f57508260ff168160016003811061135d5761135c612490565b5b602002015160016003811061137557611374612490565b5b602002015160ff16145b80156113c057508260ff168160026003811061139e5761139d612490565b5b60200201516000600381106113b6576113b5612490565b5b602002015160ff16145b156113cf5760019150506113d5565b60009150505b92915050565b6002808111156113ee576113ed611ffc565b5b6005600083815260200190815260200160002060009054906101000a900460ff16600281111561142157611420611ffc565b5b14611461576040517f08c379a00000000000000000000000000000000000000000000000000000000081526004016114589061275d565b60405180910390fd5b6004600082815260200190815260200160002060009054906101000a900473ffffffffffffffffffffffffffffffffffffffff1673ffffffffffffffffffffffffffffffffffffffff163373ffffffffffffffffffffffffffffffffffffffff1614611502576040517f08c379a00000000000000000000000000000000000000000000000000000000081526004016114f9906127c9565b60405180910390fd5b60006004600083815260200190815260200160002060009054906101000a900473ffffffffffffffffffffffffffffffffffffffff1673ffffffffffffffffffffffffffffffffffffffff1667016345785d8a00006040516115639061281a565b60006040518083038185875af1925050503d80600081146115a0576040519150601f19603f3d011682016040523d82523d6000602084013e6115a5565b606091505b50509050806115e9576040517f08c379a00000000000000000000000000000000000000000000000000000000081526004016115e09061287b565b60405180910390fd5b5050565b60008060026000848152602001908152602001600020600380602002604051908101604052809291906000905b8282101561169657838201600380602002604051908101604052809291908260038015611682576020028201916000905b82829054906101000a900460ff1660ff168152602001906001019060208260000104928301926001038202915080841161164b5790505b50505050508152602001906001019061161a565b5050505090506000816000600381106116b2576116b1612490565b5b60200201516000600381106116ca576116c9612490565b5b602002015160ff161415801561171457506000816000600381106116f1576116f0612490565b5b602002015160016003811061170957611708612490565b5b602002015160ff1614155b8015611754575060008160006003811061173157611730612490565b5b602002015160026003811061174957611748612490565b5b602002015160ff1614155b8015611794575060008160016003811061177157611770612490565b5b602002015160006003811061178957611788612490565b5b602002015160ff1614155b80156117d457506000816001600381106117b1576117b0612490565b5b60200201516001600381106117c9576117c8612490565b5b602002015160ff1614155b801561181457506000816001600381106117f1576117f0612490565b5b602002015160026003811061180957611808612490565b5b602002015160ff1614155b8015611854575060008160026003811061183157611830612490565b5b602002015160006003811061184957611848612490565b5b602002015160ff1614155b8015611894575060008160026003811061187157611870612490565b5b602002015160016003811061188957611888612490565b5b602002015160ff1614155b80156118d457506000816002600381106118b1576118b0612490565b5b60200201516002600381106118c9576118c8612490565b5b602002015160ff1614155b156118e35760019150506118e9565b60009150505b919050565b60028081111561190157611900611ffc565b5b6005600083815260200190815260200160002060009054906101000a900460ff16600281111561193457611933611ffc565b5b14611974576040517f08c379a000000000000000000000000000000000000000000000000000000000815260040161196b9061275d565b60405180910390fd5b60006001600083815260200190815260200160002060008154811061199c5761199b612490565b5b9060005260206000200160009054906101000a900473ffffffffffffffffffffffffffffffffffffffff1673ffffffffffffffffffffffffffffffffffffffff1666b1a2bc2ec500006040516119f19061281a565b60006040518083038185875af1925050503d8060008114611a2e576040519150601f19603f3d011682016040523d82523d6000602084013e611a33565b606091505b50509050600060016000848152602001908152602001600020600181548110611a5f57611a5e612490565b5b9060005260206000200160009054906101000a900473ffffffffffffffffffffffffffffffffffffffff1673ffffffffffffffffffffffffffffffffffffffff1666b1a2bc2ec50000604051611ab49061281a565b60006040518083038185875af1925050503d8060008114611af1576040519150601f19603f3d011682016040523d82523d6000602084013e611af6565b606091505b50509050818015611b045750805b611b43576040517f08c379a0000000000000000000000000000000000000000000000000000000008152600401611b3a9061287b565b60405180910390fd5b505050565b828054611b54906123f2565b90600052602060002090601f016020900481019282611b765760008555611bbd565b82601f10611b8f57805160ff1916838001178555611bbd565b82800160010185558215611bbd579182015b82811115611bbc578251825591602001919060010190611ba1565b5b509050611bca9190611bfb565b5090565b60405180606001604052806003905b611be5611c18565b815260200190600190039081611bdd5790505090565b5b80821115611c14576000816000905550600101611bfc565b5090565b6040518060600160405280600390602082028036833780820191505090505090565b6000604051905090565b600080fd5b600080fd5b6000819050919050565b611c6181611c4e565b8114611c6c57600080fd5b50565b600081359050611c7e81611c58565b92915050565b600060208284031215611c9a57611c99611c44565b5b6000611ca884828501611c6f565b91505092915050565b600081519050919050565b600082825260208201905092915050565b60005b83811015611ceb578082015181840152602081019050611cd0565b83811115611cfa576000848401525b50505050565b6000601f19601f8301169050919050565b6000611d1c82611cb1565b611d268185611cbc565b9350611d36818560208601611ccd565b611d3f81611d00565b840191505092915050565b60006020820190508181036000830152611d648184611d11565b905092915050565b600060ff82169050919050565b611d8281611d6c565b8114611d8d57600080fd5b50565b600081359050611d9f81611d79565b92915050565b600080600060608486031215611dbe57611dbd611c44565b5b6000611dcc86828701611c6f565b9350506020611ddd86828701611d90565b9250506040611dee86828701611d90565b9150509250925092565b600073ffffffffffffffffffffffffffffffffffffffff82169050919050565b6000611e2382611df8565b9050919050565b611e3381611e18565b82525050565b6000602082019050611e4e6000830184611e2a565b92915050565b611e5d81611c4e565b82525050565b6000602082019050611e786000830184611e54565b92915050565b600080fd5b600080fd5b7f4e487b7100000000000000000000000000000000000000000000000000000000600052604160045260246000fd5b611ec082611d00565b810181811067ffffffffffffffff82111715611edf57611ede611e88565b5b80604052505050565b6000611ef2611c3a565b9050611efe8282611eb7565b919050565b600067ffffffffffffffff821115611f1e57611f1d611e88565b5b611f2782611d00565b9050602081019050919050565b82818337600083830152505050565b6000611f56611f5184611f03565b611ee8565b905082815260208101848484011115611f7257611f71611e83565b5b611f7d848285611f34565b509392505050565b600082601f830112611f9a57611f99611e7e565b5b8135611faa848260208601611f43565b91505092915050565b600060208284031215611fc957611fc8611c44565b5b600082013567ffffffffffffffff811115611fe757611fe6611c49565b5b611ff384828501611f85565b91505092915050565b7f4e487b7100000000000000000000000000000000000000000000000000000000600052602160045260246000fd5b6003811061203c5761203b611ffc565b5b50565b600081905061204d8261202b565b919050565b600061205d8261203f565b9050919050565b61206d81612052565b82525050565b60006020820190506120886000830184612064565b92915050565b600080604083850312156120a5576120a4611c44565b5b60006120b385828601611c6f565b92505060206120c485828601611c6f565b9150509250929050565b6000806000606084860312156120e7576120e6611c44565b5b60006120f586828701611c6f565b935050602061210686828701611c6f565b925050604061211786828701611c6f565b9150509250925092565b61212a81611d6c565b82525050565b60006020820190506121456000830184612121565b92915050565b600081519050919050565b600082825260208201905092915050565b6000819050602082019050919050565b61218081611e18565b82525050565b60006121928383612177565b60208301905092915050565b6000602082019050919050565b60006121b68261214b565b6121c08185612156565b93506121cb83612167565b8060005b838110156121fc5781516121e38882612186565b97506121ee8361219e565b9250506001810190506121cf565b5085935050505092915050565b600060039050919050565b600081905092915050565b6000819050919050565b600060039050919050565b600081905092915050565b6000819050919050565b61225281611d6c565b82525050565b60006122648383612249565b60208301905092915050565b6000602082019050919050565b61228681612229565b6122908184612234565b925061229b8261223f565b8060005b838110156122cc5781516122b38782612258565b96506122be83612270565b92505060018101905061229f565b505050505050565b60006122e0838361227d565b60608301905092915050565b6000602082019050919050565b61230281612209565b61230c8184612214565b92506123178261221f565b8060005b8381101561234857815161232f87826122d4565b965061233a836122ec565b92505060018101905061231b565b505050505050565b60006101c082019050818103600083015261236b8189611d11565b9050818103602083015261237f81886121ab565b905061238e60408301876122f9565b61239c610160830186611e2a565b6123aa610180830185611e2a565b6123b86101a0830184612064565b979650505050505050565b7f4e487b7100000000000000000000000000000000000000000000000000000000600052602260045260246000fd5b6000600282049050600182168061240a57607f821691505b6020821081141561241e5761241d6123c3565b5b50919050565b7f49742773206e6f7420796f7572207475726e0000000000000000000000000000600082015250565b600061245a601283611cbc565b915061246582612424565b602082019050919050565b600060208201905081810360008301526124898161244d565b9050919050565b7f4e487b7100000000000000000000000000000000000000000000000000000000600052603260045260246000fd5b7f54686973206669656c6420697320616c72656164792074616b656e0000000000600082015250565b60006124f5601b83611cbc565b9150612500826124bf565b602082019050919050565b60006020820190508181036000830152612524816124e8565b9050919050565b7f47616d65206973206e6f7420706c6179696e6700000000000000000000000000600082015250565b6000612561601383611cbc565b915061256c8261252b565b602082019050919050565b6000602082019050818103600083015261259081612554565b9050919050565b7f4e487b7100000000000000000000000000000000000000000000000000000000600052601160045260246000fd5b60006125d182611c4e565b91507fffffffffffffffffffffffffffffffffffffffffffffffffffffffffffffffff82141561260457612603612597565b5b600182019050919050565b7f596f75206d7573742073656e6420302e30352065746865720000000000000000600082015250565b6000612645601883611cbc565b91506126508261260f565b602082019050919050565b6000602082019050818103600083015261267481612638565b9050919050565b7f47616d6520697320616c72656164792066756c6c000000000000000000000000600082015250565b60006126b1601483611cbc565b91506126bc8261267b565b602082019050919050565b600060208201905081810360008301526126e0816126a4565b9050919050565b60006126f282611d6c565b915060ff82141561270657612705612597565b5b600182019050919050565b7f47616d65206973206e6f742066696e6973686564000000000000000000000000600082015250565b6000612747601483611cbc565b915061275282612711565b602082019050919050565b600060208201905081810360008301526127768161273a565b9050919050565b7f596f7520617265206e6f74207468652077696e6e657200000000000000000000600082015250565b60006127b3601683611cbc565b91506127be8261277d565b602082019050919050565b600060208201905081810360008301526127e2816127a6565b9050919050565b600081905092915050565b50565b60006128046000836127e9565b915061280f826127f4565b600082019050919050565b6000612825826127f7565b9150819050919050565b7f5472616e73666572206661696c65642e00000000000000000000000000000000600082015250565b6000612865601083611cbc565b91506128708261282f565b602082019050919050565b6000602082019050818103600083015261289481612858565b905091905056fea2646970667358221220ed4e5eb4340a4e00a9a6f7618afd5789e4af8d7847b451e6c8e083973bc4e06f64736f6c63430008090033",
  "linkReferences": {},
  "deployedLinkReferences": {}
}