{
  "_format": "hh-sol-artifact-1",
  "contractName": "TicTacToe",
  "sourceName": "contracts/TicTacToe.sol",
  "abi": [
    {
      "inputs": [],
      "stateMutability": "nonpayable",
      "type": "constructor"
    },
    {
      "anonymous": false,
      "inputs": [
        {
          "indexed": true,
          "internalType": "uint256",
          "name": "gameNum",
          "type": "uint256"
        },
        {
          "indexed": false,
          "internalType": "string",
          "name": "name",
          "type": "string"
        }
      ],
      "name": "GameCreated",
      "type": "event"
    },
    {
      "anonymous": false,
      "inputs": [
        {
          "indexed": true,
          "internalType": "uint256",
          "name": "gameNum",
          "type": "uint256"
        }
      ],
      "name": "GameFinished",
      "type": "event"
    },
    {
      "anonymous": false,
      "inputs": [
        {
          "indexed": true,
          "internalType": "uint256",
          "name": "gameNum",
          "type": "uint256"
        },
        {
          "indexed": false,
          "internalType": "address",
          "name": "player",
          "type": "address"
        }
      ],
      "name": "JoinedGame",
      "type": "event"
    },
    {
      "anonymous": false,
      "inputs": [
        {
          "indexed": true,
          "internalType": "uint256",
          "name": "gameNum",
          "type": "uint256"
        },
        {
          "indexed": false,
          "internalType": "uint8",
          "name": "x",
          "type": "uint8"
        },
        {
          "indexed": false,
          "internalType": "uint8",
          "name": "y",
          "type": "uint8"
        },
        {
          "indexed": false,
          "internalType": "address",
          "name": "player",
          "type": "address"
        }
      ],
      "name": "Played",
      "type": "event"
    },
    {
      "anonymous": false,
      "inputs": [
        {
          "indexed": true,
          "internalType": "uint256",
          "name": "gameNum",
          "type": "uint256"
        },
        {
          "indexed": false,
          "internalType": "address",
          "name": "player",
          "type": "address"
        }
      ],
      "name": "RewardClaimed",
      "type": "event"
    },
    {
      "inputs": [
        {
          "internalType": "uint256",
          "name": "",
          "type": "uint256"
        },
        {
          "internalType": "uint256",
          "name": "",
          "type": "uint256"
        },
        {
          "internalType": "uint256",
          "name": "",
          "type": "uint256"
        }
      ],
      "name": "board",
      "outputs": [
        {
          "internalType": "uint8",
          "name": "",
          "type": "uint8"
        }
      ],
      "stateMutability": "view",
      "type": "function"
    },
    {
      "inputs": [
        {
          "internalType": "uint256",
          "name": "gameNum",
          "type": "uint256"
        }
      ],
      "name": "claimTie",
      "outputs": [],
      "stateMutability": "nonpayable",
      "type": "function"
    },
    {
      "inputs": [
        {
          "internalType": "uint256",
          "name": "gameNum",
          "type": "uint256"
        }
      ],
      "name": "claimWin",
      "outputs": [],
      "stateMutability": "nonpayable",
      "type": "function"
    },
    {
      "inputs": [
        {
          "internalType": "string",
          "name": "_name",
          "type": "string"
        }
      ],
      "name": "createGame",
      "outputs": [],
      "stateMutability": "payable",
      "type": "function"
    },
    {
      "inputs": [],
      "name": "gameCnt",
      "outputs": [
        {
          "internalType": "uint256",
          "name": "",
          "type": "uint256"
        }
      ],
      "stateMutability": "view",
      "type": "function"
    },
    {
      "inputs": [
        {
          "internalType": "uint256",
          "name": "gameNum",
          "type": "uint256"
        }
      ],
      "name": "getGameData",
      "outputs": [
        {
          "internalType": "string",
          "name": "",
          "type": "string"
        },
        {
          "internalType": "address[]",
          "name": "",
          "type": "address[]"
        },
        {
          "internalType": "uint8[3][3]",
          "name": "",
          "type": "uint8[3][3]"
        },
        {
          "internalType": "address",
          "name": "",
          "type": "address"
        },
        {
          "internalType": "address",
          "name": "",
          "type": "address"
        },
        {
          "internalType": "enum TicTacToe.GameStatus",
          "name": "",
          "type": "uint8"
        },
        {
          "internalType": "bool[2]",
          "name": "",
          "type": "bool[2]"
        }
      ],
      "stateMutability": "view",
      "type": "function"
    },
    {
      "inputs": [
        {
          "internalType": "uint256",
          "name": "gameNum",
          "type": "uint256"
        }
      ],
      "name": "joinGame",
      "outputs": [],
      "stateMutability": "payable",
      "type": "function"
    },
    {
      "inputs": [
        {
          "internalType": "uint256",
          "name": "",
          "type": "uint256"
        }
      ],
      "name": "name",
      "outputs": [
        {
          "internalType": "string",
          "name": "",
          "type": "string"
        }
      ],
      "stateMutability": "view",
      "type": "function"
    },
    {
      "inputs": [
        {
          "internalType": "uint256",
          "name": "gameNum",
          "type": "uint256"
        },
        {
          "internalType": "uint8",
          "name": "x",
          "type": "uint8"
        },
        {
          "internalType": "uint8",
          "name": "y",
          "type": "uint8"
        }
      ],
      "name": "play",
      "outputs": [],
      "stateMutability": "nonpayable",
      "type": "function"
    },
    {
      "inputs": [
        {
          "internalType": "uint256",
          "name": "",
          "type": "uint256"
        },
        {
          "internalType": "uint256",
          "name": "",
          "type": "uint256"
        }
      ],
      "name": "players",
      "outputs": [
        {
          "internalType": "address",
          "name": "",
          "type": "address"
        }
      ],
      "stateMutability": "view",
      "type": "function"
    },
    {
      "inputs": [
        {
          "internalType": "uint256",
          "name": "",
          "type": "uint256"
        },
        {
          "internalType": "uint256",
          "name": "",
          "type": "uint256"
        }
      ],
      "name": "rewardClaimed",
      "outputs": [
        {
          "internalType": "bool",
          "name": "",
          "type": "bool"
        }
      ],
      "stateMutability": "view",
      "type": "function"
    },
    {
      "inputs": [
        {
          "internalType": "uint256",
          "name": "",
          "type": "uint256"
        }
      ],
      "name": "status",
      "outputs": [
        {
          "internalType": "enum TicTacToe.GameStatus",
          "name": "",
          "type": "uint8"
        }
      ],
      "stateMutability": "view",
      "type": "function"
    },
    {
      "inputs": [
        {
          "internalType": "uint256",
          "name": "",
          "type": "uint256"
        }
      ],
      "name": "turn",
      "outputs": [
        {
          "internalType": "address",
          "name": "",
          "type": "address"
        }
      ],
      "stateMutability": "view",
      "type": "function"
    },
    {
      "inputs": [
        {
          "internalType": "uint256",
          "name": "",
          "type": "uint256"
        }
      ],
      "name": "winner",
      "outputs": [
        {
          "internalType": "address",
          "name": "",
          "type": "address"
        }
      ],
      "stateMutability": "view",
      "type": "function"
    }
  ],
  "bytecode": "0x608060405234801561001057600080fd5b50600060078190555061314c806100286000396000f3fe6080604052600436106100dc5760003560e01c806342d21ef71161007f578063b043d7d611610059578063b043d7d6146102e8578063b6a6566514610325578063ee0144ab14610368578063efaa55a014610391576100dc565b806342d21ef714610231578063998f1b801461026e578063af2e76dd146102ab576100dc565b80631847b7fb116100bb5780631847b7fb146101845780631cbeae5e146101ad5780631e90857f146101ea5780632ebc050414610215576100dc565b8062ad800c146100e15780630ca922b81461011e578063157ea1c614610147575b600080fd5b3480156100ed57600080fd5b50610108600480360381019061010391906122cc565b6103ad565b6040516101159190612392565b60405180910390f35b34801561012a57600080fd5b50610145600480360381019061014091906122cc565b61044d565b005b34801561015357600080fd5b5061016e600480360381019061016991906123b4565b6108be565b60405161017b919061240f565b60405180910390f35b34801561019057600080fd5b506101ab60048036038101906101a69190612463565b6108f7565b005b3480156101b957600080fd5b506101d460048036038101906101cf91906122cc565b610f72565b6040516101e191906124f7565b60405180910390f35b3480156101f657600080fd5b506101ff610fa5565b60405161020c9190612521565b60405180910390f35b61022f600480360381019061022a9190612671565b610fab565b005b34801561023d57600080fd5b50610258600480360381019061025391906122cc565b611088565b6040516102659190612731565b60405180910390f35b34801561027a57600080fd5b50610295600480360381019061029091906123b4565b6110a8565b6040516102a291906124f7565b60405180910390f35b3480156102b757600080fd5b506102d260048036038101906102cd919061274c565b6110f6565b6040516102df91906127ae565b60405180910390f35b3480156102f457600080fd5b5061030f600480360381019061030a91906122cc565b61113f565b60405161031c91906124f7565b60405180910390f35b34801561033157600080fd5b5061034c600480360381019061034791906122cc565b611172565b60405161035f9796959493929190612a79565b60405180910390f35b34801561037457600080fd5b5061038f600480360381019061038a91906122cc565b611489565b005b6103ab60048036038101906103a691906122cc565b61181c565b005b600060205280600052604060002060009150905080546103cc90612b2a565b80601f01602080910402602001604051908101604052809291908181526020018280546103f890612b2a565b80156104455780601f1061041a57610100808354040283529160200191610445565b820191906000526020600020905b81548152906001019060200180831161042857829003601f168201915b505050505081565b6002808111156104605761045f6126ba565b5b6005600083815260200190815260200160002060009054906101000a900460ff166002811115610493576104926126ba565b5b146104d3576040517f08c379a00000000000000000000000000000000000000000000000000000000081526004016104ca90612ba8565b60405180910390fd5b600073ffffffffffffffffffffffffffffffffffffffff166004600083815260200190815260200160002060009054906101000a900473ffffffffffffffffffffffffffffffffffffffff1673ffffffffffffffffffffffffffffffffffffffff1614610575576040517f08c379a000000000000000000000000000000000000000000000000000000000815260040161056c90612c14565b60405180910390fd5b6001600082815260200190815260200160002060008154811061059b5761059a612c34565b5b9060005260206000200160009054906101000a900473ffffffffffffffffffffffffffffffffffffffff1673ffffffffffffffffffffffffffffffffffffffff163373ffffffffffffffffffffffffffffffffffffffff16148061067a5750600160008281526020019081526020016000206001815481106106205761061f612c34565b5b9060005260206000200160009054906101000a900473ffffffffffffffffffffffffffffffffffffffff1673ffffffffffffffffffffffffffffffffffffffff163373ffffffffffffffffffffffffffffffffffffffff16145b6106b9576040517f08c379a00000000000000000000000000000000000000000000000000000000081526004016106b090612caf565b60405180910390fd5b60003373ffffffffffffffffffffffffffffffffffffffff1666b1a2bc2ec500006040516106e690612d00565b60006040518083038185875af1925050503d8060008114610723576040519150601f19603f3d011682016040523d82523d6000602084013e610728565b606091505b505090508061076c576040517f08c379a000000000000000000000000000000000000000000000000000000000815260040161076390612d61565b60405180910390fd5b3373ffffffffffffffffffffffffffffffffffffffff16600160008481526020019081526020016000206000815481106107a9576107a8612c34565b5b9060005260206000200160009054906101000a900473ffffffffffffffffffffffffffffffffffffffff1673ffffffffffffffffffffffffffffffffffffffff161461083a5760016006600084815260200190815260200160002060016002811061081757610816612c34565b5b602091828204019190066101000a81548160ff0219169083151502179055610881565b60016006600084815260200190815260200160002060006002811061086257610861612c34565b5b602091828204019190066101000a81548160ff02191690831515021790555b50817f5dd59f4285b36241394b73f8f7ae03d0290b030a86803cf2562ecf33eeb617bd336040516108b291906124f7565b60405180910390a25050565b600660205281600052604060002081600281106108da57600080fd5b60209182820401919006915091509054906101000a900460ff1681565b3373ffffffffffffffffffffffffffffffffffffffff166003600085815260200190815260200160002060009054906101000a900473ffffffffffffffffffffffffffffffffffffffff1673ffffffffffffffffffffffffffffffffffffffff1614610998576040517f08c379a000000000000000000000000000000000000000000000000000000000815260040161098f90612dcd565b60405180910390fd5b6000600260008581526020019081526020016000208360ff16600381106109c2576109c1612c34565b5b018260ff16600381106109d8576109d7612c34565b5b602091828204019190069054906101000a900460ff1660ff1614610a31576040517f08c379a0000000000000000000000000000000000000000000000000000000008152600401610a2890612e39565b60405180910390fd5b60016002811115610a4557610a446126ba565b5b6005600085815260200190815260200160002060009054906101000a900460ff166002811115610a7857610a776126ba565b5b14610ab8576040517f08c379a0000000000000000000000000000000000000000000000000000000008152600401610aaf90612ea5565b60405180910390fd5b600060016000858152602001908152602001600020600081548110610ae057610adf612c34565b5b9060005260206000200160009054906101000a900473ffffffffffffffffffffffffffffffffffffffff1673ffffffffffffffffffffffffffffffffffffffff166003600086815260200190815260200160002060009054906101000a900473ffffffffffffffffffffffffffffffffffffffff1673ffffffffffffffffffffffffffffffffffffffff1614610b77576002610b7a565b60015b905080600260008681526020019081526020016000208460ff1660038110610ba557610ba4612c34565b5b018360ff1660038110610bbb57610bba612c34565b5b602091828204019190066101000a81548160ff021916908360ff160217905550837fa9971a3503f5942394cf5bb459dcda12155a44b64890f494bc402f36223a85be848433604051610c0f93929190612ec5565b60405180910390a260016000858152602001908152602001600020600081548110610c3d57610c3c612c34565b5b9060005260206000200160009054906101000a900473ffffffffffffffffffffffffffffffffffffffff1673ffffffffffffffffffffffffffffffffffffffff166003600086815260200190815260200160002060009054906101000a900473ffffffffffffffffffffffffffffffffffffffff1673ffffffffffffffffffffffffffffffffffffffff1614610d235760016000858152602001908152602001600020600081548110610cf357610cf2612c34565b5b9060005260206000200160009054906101000a900473ffffffffffffffffffffffffffffffffffffffff16610d75565b60016000858152602001908152602001600020600181548110610d4957610d48612c34565b5b9060005260206000200160009054906101000a900473ffffffffffffffffffffffffffffffffffffffff165b6003600086815260200190815260200160002060006101000a81548173ffffffffffffffffffffffffffffffffffffffff021916908373ffffffffffffffffffffffffffffffffffffffff160217905550610dd08482611a36565b15610ef35760016000858152602001908152602001600020600182610df59190612f2b565b60ff1681548110610e0957610e08612c34565b5b9060005260206000200160009054906101000a900473ffffffffffffffffffffffffffffffffffffffff166004600086815260200190815260200160002060006101000a81548173ffffffffffffffffffffffffffffffffffffffff021916908373ffffffffffffffffffffffffffffffffffffffff16021790555060026005600086815260200190815260200160002060006101000a81548160ff02191690836002811115610ebc57610ebb6126ba565b5b0217905550837f6543ec12c6e53f26532beb5289ef5732dcd77c2e9e9921ae42b695905f5e84c060405160405180910390a2610f6c565b610efc84611e6d565b15610f6b5760026005600086815260200190815260200160002060006101000a81548160ff02191690836002811115610f3857610f376126ba565b5b0217905550837f6543ec12c6e53f26532beb5289ef5732dcd77c2e9e9921ae42b695905f5e84c060405160405180910390a25b5b50505050565b60046020528060005260406000206000915054906101000a900473ffffffffffffffffffffffffffffffffffffffff1681565b60075481565b8060008060075481526020019081526020016000209080519060200190610fd392919061216e565b50610fdf60075461181c565b3360036000600754815260200190815260200160002060006101000a81548173ffffffffffffffffffffffffffffffffffffffff021916908373ffffffffffffffffffffffffffffffffffffffff1602179055506007547f92cd4308de0033bbf62e7d0ff46ce10049efffad40fb2c7d8a352a4a6ca7adc1826040516110659190612392565b60405180910390a26007600081548092919061108090612f5f565b919050555050565b60056020528060005260406000206000915054906101000a900460ff1681565b600160205281600052604060002081815481106110c457600080fd5b906000526020600020016000915091509054906101000a900473ffffffffffffffffffffffffffffffffffffffff1681565b6002602052826000526040600020826003811061111257600080fd5b01816003811061112157600080fd5b6020918282040191900692509250509054906101000a900460ff1681565b60036020528060005260406000206000915054906101000a900473ffffffffffffffffffffffffffffffffffffffff1681565b60608061117d6121f4565b600080600061118a612221565b600080898152602001908152602001600020600160008a8152602001908152602001600020600260008b8152602001908152602001600020600360008c815260200190815260200160002060009054906101000a900473ffffffffffffffffffffffffffffffffffffffff16600460008d815260200190815260200160002060009054906101000a900473ffffffffffffffffffffffffffffffffffffffff16600560008e815260200190815260200160002060009054906101000a900460ff16600660008f815260200190815260200160002086805461126a90612b2a565b80601f016020809104026020016040519081016040528092919081815260200182805461129690612b2a565b80156112e35780601f106112b8576101008083540402835291602001916112e3565b820191906000526020600020905b8154815290600101906020018083116112c657829003601f168201915b505050505096508580548060200260200160405190810160405280929190818152602001828054801561136b57602002820191906000526020600020905b8160009054906101000a900473ffffffffffffffffffffffffffffffffffffffff1673ffffffffffffffffffffffffffffffffffffffff1681526020019060010190808311611321575b5050505050955084600380602002604051908101604052809291906000905b82821015611406578382016003806020026040519081016040528092919082600380156113f2576020028201916000905b82829054906101000a900460ff1660ff16815260200190600101906020826000010492830192600103820291508084116113bb5790505b50505050508152602001906001019061138a565b50505050945080600280602002604051908101604052809291908260028015611469576020028201916000905b82829054906101000a900460ff161515815260200190600101906020826000010492830192600103820291508084116114335790505b505050505090509650965096509650965096509650919395979092949650565b60028081111561149c5761149b6126ba565b5b6005600083815260200190815260200160002060009054906101000a900460ff1660028111156114cf576114ce6126ba565b5b1461150f576040517f08c379a000000000000000000000000000000000000000000000000000000000815260040161150690612ba8565b60405180910390fd5b6004600082815260200190815260200160002060009054906101000a900473ffffffffffffffffffffffffffffffffffffffff1673ffffffffffffffffffffffffffffffffffffffff163373ffffffffffffffffffffffffffffffffffffffff16146115b0576040517f08c379a00000000000000000000000000000000000000000000000000000000081526004016115a790612ff4565b60405180910390fd5b60006004600083815260200190815260200160002060009054906101000a900473ffffffffffffffffffffffffffffffffffffffff1673ffffffffffffffffffffffffffffffffffffffff1667016345785d8a000060405161161190612d00565b60006040518083038185875af1925050503d806000811461164e576040519150601f19603f3d011682016040523d82523d6000602084013e611653565b606091505b5050905080611697576040517f08c379a000000000000000000000000000000000000000000000000000000000815260040161168e90612d61565b60405180910390fd5b6004600083815260200190815260200160002060009054906101000a900473ffffffffffffffffffffffffffffffffffffffff1673ffffffffffffffffffffffffffffffffffffffff166001600084815260200190815260200160002060008154811061170757611706612c34565b5b9060005260206000200160009054906101000a900473ffffffffffffffffffffffffffffffffffffffff1673ffffffffffffffffffffffffffffffffffffffff16146117985760016006600084815260200190815260200160002060016002811061177557611774612c34565b5b602091828204019190066101000a81548160ff02191690831515021790556117df565b6001600660008481526020019081526020016000206000600281106117c0576117bf612c34565b5b602091828204019190066101000a81548160ff02191690831515021790555b50817f5dd59f4285b36241394b73f8f7ae03d0290b030a86803cf2562ecf33eeb617bd3360405161181091906124f7565b60405180910390a25050565b66b1a2bc2ec500003414611865576040517f08c379a000000000000000000000000000000000000000000000000000000000815260040161185c90613060565b60405180910390fd5b60006002811115611879576118786126ba565b5b6005600083815260200190815260200160002060009054906101000a900460ff1660028111156118ac576118ab6126ba565b5b146118ec576040517f08c379a00000000000000000000000000000000000000000000000000000000081526004016118e3906130cc565b60405180910390fd5b60016000828152602001908152602001600020339080600181540180825580915050600190039060005260206000200160009091909190916101000a81548173ffffffffffffffffffffffffffffffffffffffff021916908373ffffffffffffffffffffffffffffffffffffffff16021790555060026001600083815260200190815260200160002080549050146119be5760006005600083815260200190815260200160002060006101000a81548160ff021916908360028111156119b5576119b46126ba565b5b021790556119fa565b60016005600083815260200190815260200160002060006101000a81548160ff021916908360028111156119f5576119f46126ba565b5b021790555b50807f1f8563b32a0bf618f00d2cbcb52b004d5757561ee12274f8c1d85b6f44fa551a33604051611a2b91906124f7565b60405180910390a250565b60008060026000858152602001908152602001600020600380602002604051908101604052809291906000905b82821015611adf57838201600380602002604051908101604052809291908260038015611acb576020028201916000905b82829054906101000a900460ff1660ff1681526020019060010190602082600001049283019260010382029150808411611a945790505b505050505081526020019060010190611a63565b50505050905060005b60038160ff161015611bd8578360ff16828260ff1660038110611b0e57611b0d612c34565b5b6020020151600060038110611b2657611b25612c34565b5b602002015160ff16148015611b7257508360ff16828260ff1660038110611b5057611b4f612c34565b5b6020020151600160038110611b6857611b67612c34565b5b602002015160ff16145b8015611bb557508360ff16828260ff1660038110611b9357611b92612c34565b5b6020020151600260038110611bab57611baa612c34565b5b602002015160ff16145b15611bc557600192505050611e67565b8080611bd0906130ec565b915050611ae8565b5060005b60038160ff161015611ccc578360ff1682600060038110611c0057611bff612c34565b5b60200201518260ff1660038110611c1a57611c19612c34565b5b602002015160ff16148015611c6657508360ff1682600160038110611c4257611c41612c34565b5b60200201518260ff1660038110611c5c57611c5b612c34565b5b602002015160ff16145b8015611ca957508360ff1682600260038110611c8557611c84612c34565b5b60200201518260ff1660038110611c9f57611c9e612c34565b5b602002015160ff16145b15611cb957600192505050611e67565b8080611cc4906130ec565b915050611bdc565b508260ff1681600060038110611ce557611ce4612c34565b5b6020020151600060038110611cfd57611cfc612c34565b5b602002015160ff16148015611d4757508260ff1681600160038110611d2557611d24612c34565b5b6020020151600160038110611d3d57611d3c612c34565b5b602002015160ff16145b8015611d8857508260ff1681600260038110611d6657611d65612c34565b5b6020020151600260038110611d7e57611d7d612c34565b5b602002015160ff16145b15611d97576001915050611e67565b8260ff1681600060038110611daf57611dae612c34565b5b6020020151600260038110611dc757611dc6612c34565b5b602002015160ff16148015611e1157508260ff1681600160038110611def57611dee612c34565b5b6020020151600160038110611e0757611e06612c34565b5b602002015160ff16145b8015611e5257508260ff1681600260038110611e3057611e2f612c34565b5b6020020151600060038110611e4857611e47612c34565b5b602002015160ff16145b15611e61576001915050611e67565b60009150505b92915050565b60008060026000848152602001908152602001600020600380602002604051908101604052809291906000905b82821015611f1657838201600380602002604051908101604052809291908260038015611f02576020028201916000905b82829054906101000a900460ff1660ff1681526020019060010190602082600001049283019260010382029150808411611ecb5790505b505050505081526020019060010190611e9a565b505050509050600081600060038110611f3257611f31612c34565b5b6020020151600060038110611f4a57611f49612c34565b5b602002015160ff1614158015611f945750600081600060038110611f7157611f70612c34565b5b6020020151600160038110611f8957611f88612c34565b5b602002015160ff1614155b8015611fd45750600081600060038110611fb157611fb0612c34565b5b6020020151600260038110611fc957611fc8612c34565b5b602002015160ff1614155b80156120145750600081600160038110611ff157611ff0612c34565b5b602002015160006003811061200957612008612c34565b5b602002015160ff1614155b8015612054575060008160016003811061203157612030612c34565b5b602002015160016003811061204957612048612c34565b5b602002015160ff1614155b8015612094575060008160016003811061207157612070612c34565b5b602002015160026003811061208957612088612c34565b5b602002015160ff1614155b80156120d457506000816002600381106120b1576120b0612c34565b5b60200201516000600381106120c9576120c8612c34565b5b602002015160ff1614155b801561211457506000816002600381106120f1576120f0612c34565b5b602002015160016003811061210957612108612c34565b5b602002015160ff1614155b8015612154575060008160026003811061213157612130612c34565b5b602002015160026003811061214957612148612c34565b5b602002015160ff1614155b15612163576001915050612169565b60009150505b919050565b82805461217a90612b2a565b90600052602060002090601f01602090048101928261219c57600085556121e3565b82601f106121b557805160ff19168380011785556121e3565b828001600101855582156121e3579182015b828111156121e25782518255916020019190600101906121c7565b5b5090506121f09190612243565b5090565b60405180606001604052806003905b61220b612260565b8152602001906001900390816122035790505090565b6040518060400160405280600290602082028036833780820191505090505090565b5b8082111561225c576000816000905550600101612244565b5090565b6040518060600160405280600390602082028036833780820191505090505090565b6000604051905090565b600080fd5b600080fd5b6000819050919050565b6122a981612296565b81146122b457600080fd5b50565b6000813590506122c6816122a0565b92915050565b6000602082840312156122e2576122e161228c565b5b60006122f0848285016122b7565b91505092915050565b600081519050919050565b600082825260208201905092915050565b60005b83811015612333578082015181840152602081019050612318565b83811115612342576000848401525b50505050565b6000601f19601f8301169050919050565b6000612364826122f9565b61236e8185612304565b935061237e818560208601612315565b61238781612348565b840191505092915050565b600060208201905081810360008301526123ac8184612359565b905092915050565b600080604083850312156123cb576123ca61228c565b5b60006123d9858286016122b7565b92505060206123ea858286016122b7565b9150509250929050565b60008115159050919050565b612409816123f4565b82525050565b60006020820190506124246000830184612400565b92915050565b600060ff82169050919050565b6124408161242a565b811461244b57600080fd5b50565b60008135905061245d81612437565b92915050565b60008060006060848603121561247c5761247b61228c565b5b600061248a868287016122b7565b935050602061249b8682870161244e565b92505060406124ac8682870161244e565b9150509250925092565b600073ffffffffffffffffffffffffffffffffffffffff82169050919050565b60006124e1826124b6565b9050919050565b6124f1816124d6565b82525050565b600060208201905061250c60008301846124e8565b92915050565b61251b81612296565b82525050565b60006020820190506125366000830184612512565b92915050565b600080fd5b600080fd5b7f4e487b7100000000000000000000000000000000000000000000000000000000600052604160045260246000fd5b61257e82612348565b810181811067ffffffffffffffff8211171561259d5761259c612546565b5b80604052505050565b60006125b0612282565b90506125bc8282612575565b919050565b600067ffffffffffffffff8211156125dc576125db612546565b5b6125e582612348565b9050602081019050919050565b82818337600083830152505050565b600061261461260f846125c1565b6125a6565b9050828152602081018484840111156126305761262f612541565b5b61263b8482856125f2565b509392505050565b600082601f8301126126585761265761253c565b5b8135612668848260208601612601565b91505092915050565b6000602082840312156126875761268661228c565b5b600082013567ffffffffffffffff8111156126a5576126a4612291565b5b6126b184828501612643565b91505092915050565b7f4e487b7100000000000000000000000000000000000000000000000000000000600052602160045260246000fd5b600381106126fa576126f96126ba565b5b50565b600081905061270b826126e9565b919050565b600061271b826126fd565b9050919050565b61272b81612710565b82525050565b60006020820190506127466000830184612722565b92915050565b6000806000606084860312156127655761276461228c565b5b6000612773868287016122b7565b9350506020612784868287016122b7565b9250506040612795868287016122b7565b9150509250925092565b6127a88161242a565b82525050565b60006020820190506127c3600083018461279f565b92915050565b600081519050919050565b600082825260208201905092915050565b6000819050602082019050919050565b6127fe816124d6565b82525050565b600061281083836127f5565b60208301905092915050565b6000602082019050919050565b6000612834826127c9565b61283e81856127d4565b9350612849836127e5565b8060005b8381101561287a5781516128618882612804565b975061286c8361281c565b92505060018101905061284d565b5085935050505092915050565b600060039050919050565b600081905092915050565b6000819050919050565b600060039050919050565b600081905092915050565b6000819050919050565b6128d08161242a565b82525050565b60006128e283836128c7565b60208301905092915050565b6000602082019050919050565b612904816128a7565b61290e81846128b2565b9250612919826128bd565b8060005b8381101561294a57815161293187826128d6565b965061293c836128ee565b92505060018101905061291d565b505050505050565b600061295e83836128fb565b60608301905092915050565b6000602082019050919050565b61298081612887565b61298a8184612892565b92506129958261289d565b8060005b838110156129c65781516129ad8782612952565b96506129b88361296a565b925050600181019050612999565b505050505050565b600060029050919050565b600081905092915050565b6000819050919050565b6129f7816123f4565b82525050565b6000612a0983836129ee565b60208301905092915050565b6000602082019050919050565b612a2b816129ce565b612a3581846129d9565b9250612a40826129e4565b8060005b83811015612a71578151612a5887826129fd565b9650612a6383612a15565b925050600181019050612a44565b505050505050565b6000610200820190508181036000830152612a94818a612359565b90508181036020830152612aa88189612829565b9050612ab76040830188612977565b612ac56101608301876124e8565b612ad36101808301866124e8565b612ae16101a0830185612722565b612aef6101c0830184612a22565b98975050505050505050565b7f4e487b7100000000000000000000000000000000000000000000000000000000600052602260045260246000fd5b60006002820490506001821680612b4257607f821691505b60208210811415612b5657612b55612afb565b5b50919050565b7f47616d65206973206e6f742066696e6973686564000000000000000000000000600082015250565b6000612b92601483612304565b9150612b9d82612b5c565b602082019050919050565b60006020820190508181036000830152612bc181612b85565b9050919050565b7f546865726520697320612077696e6e6572000000000000000000000000000000600082015250565b6000612bfe601183612304565b9150612c0982612bc8565b602082019050919050565b60006020820190508181036000830152612c2d81612bf1565b9050919050565b7f4e487b7100000000000000000000000000000000000000000000000000000000600052603260045260246000fd5b7f596f7520617265206e6f742074686520706c6179657200000000000000000000600082015250565b6000612c99601683612304565b9150612ca482612c63565b602082019050919050565b60006020820190508181036000830152612cc881612c8c565b9050919050565b600081905092915050565b50565b6000612cea600083612ccf565b9150612cf582612cda565b600082019050919050565b6000612d0b82612cdd565b9150819050919050565b7f5472616e73666572206661696c65642e00000000000000000000000000000000600082015250565b6000612d4b601083612304565b9150612d5682612d15565b602082019050919050565b60006020820190508181036000830152612d7a81612d3e565b9050919050565b7f49742773206e6f7420796f7572207475726e0000000000000000000000000000600082015250565b6000612db7601283612304565b9150612dc282612d81565b602082019050919050565b60006020820190508181036000830152612de681612daa565b9050919050565b7f54686973206669656c6420697320616c72656164792074616b656e0000000000600082015250565b6000612e23601b83612304565b9150612e2e82612ded565b602082019050919050565b60006020820190508181036000830152612e5281612e16565b9050919050565b7f47616d65206973206e6f7420706c6179696e6700000000000000000000000000600082015250565b6000612e8f601383612304565b9150612e9a82612e59565b602082019050919050565b60006020820190508181036000830152612ebe81612e82565b9050919050565b6000606082019050612eda600083018661279f565b612ee7602083018561279f565b612ef460408301846124e8565b949350505050565b7f4e487b7100000000000000000000000000000000000000000000000000000000600052601160045260246000fd5b6000612f368261242a565b9150612f418361242a565b925082821015612f5457612f53612efc565b5b828203905092915050565b6000612f6a82612296565b91507fffffffffffffffffffffffffffffffffffffffffffffffffffffffffffffffff821415612f9d57612f9c612efc565b5b600182019050919050565b7f596f7520617265206e6f74207468652077696e6e657200000000000000000000600082015250565b6000612fde601683612304565b9150612fe982612fa8565b602082019050919050565b6000602082019050818103600083015261300d81612fd1565b9050919050565b7f596f75206d7573742073656e6420302e30352065746865720000000000000000600082015250565b600061304a601883612304565b915061305582613014565b602082019050919050565b600060208201905081810360008301526130798161303d565b9050919050565b7f47616d6520697320616c72656164792066756c6c000000000000000000000000600082015250565b60006130b6601483612304565b91506130c182613080565b602082019050919050565b600060208201905081810360008301526130e5816130a9565b9050919050565b60006130f78261242a565b915060ff82141561310b5761310a612efc565b5b60018201905091905056fea2646970667358221220f5258b44fa4358a7040370e5fcea63d65e49f307e9818e13356993b75be82aad64736f6c63430008090033",
  "linkReferences": {},
  "deployedLinkReferences": {}
}