{
  "_format": "hh-sol-artifact-1",
  "contractName": "TicTacToe",
  "sourceName": "contracts/TicTacToe.sol",
  "abi": [
    {
      "inputs": [],
      "stateMutability": "nonpayable",
      "type": "constructor"
    },
    {
      "inputs": [
        {
          "internalType": "uint256",
          "name": "",
          "type": "uint256"
        },
        {
          "internalType": "uint256",
          "name": "",
          "type": "uint256"
        },
        {
          "internalType": "uint256",
          "name": "",
          "type": "uint256"
        }
      ],
      "name": "board",
      "outputs": [
        {
          "internalType": "uint8",
          "name": "",
          "type": "uint8"
        }
      ],
      "stateMutability": "view",
      "type": "function"
    },
    {
      "inputs": [
        {
          "internalType": "uint256",
          "name": "gameNum",
          "type": "uint256"
        }
      ],
      "name": "joinGame",
      "outputs": [],
      "stateMutability": "payable",
      "type": "function"
    },
    {
      "inputs": [
        {
          "internalType": "uint256",
          "name": "gameNum",
          "type": "uint256"
        },
        {
          "internalType": "uint8",
          "name": "x",
          "type": "uint8"
        },
        {
          "internalType": "uint8",
          "name": "y",
          "type": "uint8"
        }
      ],
      "name": "play",
      "outputs": [],
      "stateMutability": "nonpayable",
      "type": "function"
    },
    {
      "inputs": [
        {
          "internalType": "uint256",
          "name": "",
          "type": "uint256"
        },
        {
          "internalType": "uint256",
          "name": "",
          "type": "uint256"
        }
      ],
      "name": "players",
      "outputs": [
        {
          "internalType": "address",
          "name": "",
          "type": "address"
        }
      ],
      "stateMutability": "view",
      "type": "function"
    },
    {
      "inputs": [
        {
          "internalType": "uint256",
          "name": "",
          "type": "uint256"
        }
      ],
      "name": "status",
      "outputs": [
        {
          "internalType": "enum TicTacToe.GameStatus",
          "name": "",
          "type": "uint8"
        }
      ],
      "stateMutability": "view",
      "type": "function"
    },
    {
      "inputs": [
        {
          "internalType": "uint256",
          "name": "",
          "type": "uint256"
        }
      ],
      "name": "turn",
      "outputs": [
        {
          "internalType": "address",
          "name": "",
          "type": "address"
        }
      ],
      "stateMutability": "view",
      "type": "function"
    },
    {
      "inputs": [
        {
          "internalType": "uint256",
          "name": "",
          "type": "uint256"
        }
      ],
      "name": "winner",
      "outputs": [
        {
          "internalType": "address",
          "name": "",
          "type": "address"
        }
      ],
      "stateMutability": "view",
      "type": "function"
    }
  ],
  "bytecode": "0x608060405234801561001057600080fd5b50611d27806100206000396000f3fe6080604052600436106100705760003560e01c8063998f1b801161004e578063998f1b8014610118578063af2e76dd14610155578063b043d7d614610192578063efaa55a0146101cf57610070565b80631847b7fb146100755780631cbeae5e1461009e57806342d21ef7146100db575b600080fd5b34801561008157600080fd5b5061009c60048036038101906100979190611687565b6101eb565b005b3480156100aa57600080fd5b506100c560048036038101906100c091906116da565b6107d2565b6040516100d29190611748565b60405180910390f35b3480156100e757600080fd5b5061010260048036038101906100fd91906116da565b610805565b60405161010f91906117da565b60405180910390f35b34801561012457600080fd5b5061013f600480360381019061013a91906117f5565b610825565b60405161014c9190611748565b60405180910390f35b34801561016157600080fd5b5061017c60048036038101906101779190611835565b610873565b6040516101899190611897565b60405180910390f35b34801561019e57600080fd5b506101b960048036038101906101b491906116da565b6108bc565b6040516101c69190611748565b60405180910390f35b6101e960048036038101906101e491906116da565b6108ef565b005b3373ffffffffffffffffffffffffffffffffffffffff166002600085815260200190815260200160002060009054906101000a900473ffffffffffffffffffffffffffffffffffffffff1673ffffffffffffffffffffffffffffffffffffffff161461028c576040517f08c379a00000000000000000000000000000000000000000000000000000000081526004016102839061190f565b60405180910390fd5b6000600160008581526020019081526020016000208360ff16600381106102b6576102b561192f565b5b018260ff16600381106102cc576102cb61192f565b5b602091828204019190069054906101000a900460ff1660ff1614610325576040517f08c379a000000000000000000000000000000000000000000000000000000000815260040161031c906119aa565b60405180910390fd5b6001600281111561033957610338611763565b5b6004600085815260200190815260200160002060009054906101000a900460ff16600281111561036c5761036b611763565b5b146103ac576040517f08c379a00000000000000000000000000000000000000000000000000000000081526004016103a390611a16565b60405180910390fd5b60008060008581526020019081526020016000206000815481106103d3576103d261192f565b5b9060005260206000200160009054906101000a900473ffffffffffffffffffffffffffffffffffffffff1673ffffffffffffffffffffffffffffffffffffffff166002600086815260200190815260200160002060009054906101000a900473ffffffffffffffffffffffffffffffffffffffff1673ffffffffffffffffffffffffffffffffffffffff161461046a57600261046d565b60015b905080600160008681526020019081526020016000208460ff16600381106104985761049761192f565b5b018360ff16600381106104ae576104ad61192f565b5b602091828204019190066101000a81548160ff021916908360ff1602179055506104d88482610a71565b156105cb576000808581526020019081526020016000208160ff16815481106105045761050361192f565b5b9060005260206000200160009054906101000a900473ffffffffffffffffffffffffffffffffffffffff166003600086815260200190815260200160002060006101000a81548173ffffffffffffffffffffffffffffffffffffffff021916908373ffffffffffffffffffffffffffffffffffffffff16021790555060026004600086815260200190815260200160002060006101000a81548160ff021916908360028111156105b7576105b6611763565b5b02179055506105c584610ea8565b506107cd565b6000808581526020019081526020016000206000815481106105f0576105ef61192f565b5b9060005260206000200160009054906101000a900473ffffffffffffffffffffffffffffffffffffffff1673ffffffffffffffffffffffffffffffffffffffff166002600086815260200190815260200160002060009054906101000a900473ffffffffffffffffffffffffffffffffffffffff1673ffffffffffffffffffffffffffffffffffffffff16146106d5576000808581526020019081526020016000206000815481106106a5576106a461192f565b5b9060005260206000200160009054906101000a900473ffffffffffffffffffffffffffffffffffffffff16610726565b6000808581526020019081526020016000206001815481106106fa576106f961192f565b5b9060005260206000200160009054906101000a900473ffffffffffffffffffffffffffffffffffffffff165b6002600086815260200190815260200160002060006101000a81548173ffffffffffffffffffffffffffffffffffffffff021916908373ffffffffffffffffffffffffffffffffffffffff160217905550610780846110ba565b156107cb5760026004600086815260200190815260200160002060006101000a81548160ff021916908360028111156107bc576107bb611763565b5b02179055506107ca846113bb565b5b505b505050565b60036020528060005260406000206000915054906101000a900473ffffffffffffffffffffffffffffffffffffffff1681565b60046020528060005260406000206000915054906101000a900460ff1681565b6000602052816000526040600020818154811061084157600080fd5b906000526020600020016000915091509054906101000a900473ffffffffffffffffffffffffffffffffffffffff1681565b6001602052826000526040600020826003811061088f57600080fd5b01816003811061089e57600080fd5b6020918282040191900692509250509054906101000a900460ff1681565b60026020528060005260406000206000915054906101000a900473ffffffffffffffffffffffffffffffffffffffff1681565b66b1a2bc2ec500003414610938576040517f08c379a000000000000000000000000000000000000000000000000000000000815260040161092f90611a82565b60405180910390fd5b6000600281111561094c5761094b611763565b5b6004600083815260200190815260200160002060009054906101000a900460ff16600281111561097f5761097e611763565b5b146109bf576040517f08c379a00000000000000000000000000000000000000000000000000000000081526004016109b690611aee565b60405180910390fd5b600080828152602001908152602001600020339080600181540180825580915050600190039060005260206000200160009091909190916101000a81548173ffffffffffffffffffffffffffffffffffffffff021916908373ffffffffffffffffffffffffffffffffffffffff16021790555060016004600083815260200190815260200160002060006101000a81548160ff02191690836002811115610a6957610a68611763565b5b021790555050565b60008060016000858152602001908152602001600020600380602002604051908101604052809291906000905b82821015610b1a57838201600380602002604051908101604052809291908260038015610b06576020028201916000905b82829054906101000a900460ff1660ff1681526020019060010190602082600001049283019260010382029150808411610acf5790505b505050505081526020019060010190610a9e565b50505050905060005b60038160ff161015610c13578360ff16828260ff1660038110610b4957610b4861192f565b5b6020020151600060038110610b6157610b6061192f565b5b602002015160ff16148015610bad57508360ff16828260ff1660038110610b8b57610b8a61192f565b5b6020020151600160038110610ba357610ba261192f565b5b602002015160ff16145b8015610bf057508360ff16828260ff1660038110610bce57610bcd61192f565b5b6020020151600260038110610be657610be561192f565b5b602002015160ff16145b15610c0057600192505050610ea2565b8080610c0b90611b3d565b915050610b23565b5060005b60038160ff161015610d07578360ff1682600060038110610c3b57610c3a61192f565b5b60200201518260ff1660038110610c5557610c5461192f565b5b602002015160ff16148015610ca157508360ff1682600160038110610c7d57610c7c61192f565b5b60200201518260ff1660038110610c9757610c9661192f565b5b602002015160ff16145b8015610ce457508360ff1682600260038110610cc057610cbf61192f565b5b60200201518260ff1660038110610cda57610cd961192f565b5b602002015160ff16145b15610cf457600192505050610ea2565b8080610cff90611b3d565b915050610c17565b508260ff1681600060038110610d2057610d1f61192f565b5b6020020151600060038110610d3857610d3761192f565b5b602002015160ff16148015610d8257508260ff1681600160038110610d6057610d5f61192f565b5b6020020151600160038110610d7857610d7761192f565b5b602002015160ff16145b8015610dc357508260ff1681600260038110610da157610da061192f565b5b6020020151600260038110610db957610db861192f565b5b602002015160ff16145b15610dd2576001915050610ea2565b8260ff1681600060038110610dea57610de961192f565b5b6020020151600260038110610e0257610e0161192f565b5b602002015160ff16148015610e4c57508260ff1681600160038110610e2a57610e2961192f565b5b6020020151600160038110610e4257610e4161192f565b5b602002015160ff16145b8015610e8d57508260ff1681600260038110610e6b57610e6a61192f565b5b6020020151600060038110610e8357610e8261192f565b5b602002015160ff16145b15610e9c576001915050610ea2565b60009150505b92915050565b600280811115610ebb57610eba611763565b5b6004600083815260200190815260200160002060009054906101000a900460ff166002811115610eee57610eed611763565b5b14610f2e576040517f08c379a0000000000000000000000000000000000000000000000000000000008152600401610f2590611bb3565b60405180910390fd5b6003600082815260200190815260200160002060009054906101000a900473ffffffffffffffffffffffffffffffffffffffff1673ffffffffffffffffffffffffffffffffffffffff163373ffffffffffffffffffffffffffffffffffffffff1614610fcf576040517f08c379a0000000000000000000000000000000000000000000000000000000008152600401610fc690611c1f565b60405180910390fd5b60006003600083815260200190815260200160002060009054906101000a900473ffffffffffffffffffffffffffffffffffffffff1673ffffffffffffffffffffffffffffffffffffffff1667016345785d8a000060405161103090611c70565b60006040518083038185875af1925050503d806000811461106d576040519150601f19603f3d011682016040523d82523d6000602084013e611072565b606091505b50509050806110b6576040517f08c379a00000000000000000000000000000000000000000000000000000000081526004016110ad90611cd1565b60405180910390fd5b5050565b60008060016000848152602001908152602001600020600380602002604051908101604052809291906000905b828210156111635783820160038060200260405190810160405280929190826003801561114f576020028201916000905b82829054906101000a900460ff1660ff16815260200190600101906020826000010492830192600103820291508084116111185790505b5050505050815260200190600101906110e7565b50505050905060008160006003811061117f5761117e61192f565b5b60200201516000600381106111975761119661192f565b5b602002015160ff16141580156111e157506000816000600381106111be576111bd61192f565b5b60200201516001600381106111d6576111d561192f565b5b602002015160ff1614155b801561122157506000816000600381106111fe576111fd61192f565b5b60200201516002600381106112165761121561192f565b5b602002015160ff1614155b8015611261575060008160016003811061123e5761123d61192f565b5b60200201516000600381106112565761125561192f565b5b602002015160ff1614155b80156112a1575060008160016003811061127e5761127d61192f565b5b60200201516001600381106112965761129561192f565b5b602002015160ff1614155b80156112e157506000816001600381106112be576112bd61192f565b5b60200201516002600381106112d6576112d561192f565b5b602002015160ff1614155b801561132157506000816002600381106112fe576112fd61192f565b5b60200201516000600381106113165761131561192f565b5b602002015160ff1614155b8015611361575060008160026003811061133e5761133d61192f565b5b60200201516001600381106113565761135561192f565b5b602002015160ff1614155b80156113a1575060008160026003811061137e5761137d61192f565b5b60200201516002600381106113965761139561192f565b5b602002015160ff1614155b156113b05760019150506113b6565b60009150505b919050565b6002808111156113ce576113cd611763565b5b6004600083815260200190815260200160002060009054906101000a900460ff16600281111561140157611400611763565b5b14611441576040517f08c379a000000000000000000000000000000000000000000000000000000000815260040161143890611bb3565b60405180910390fd5b60008060008381526020019081526020016000206000815481106114685761146761192f565b5b9060005260206000200160009054906101000a900473ffffffffffffffffffffffffffffffffffffffff1673ffffffffffffffffffffffffffffffffffffffff1666b1a2bc2ec500006040516114bd90611c70565b60006040518083038185875af1925050503d80600081146114fa576040519150601f19603f3d011682016040523d82523d6000602084013e6114ff565b606091505b50509050600080600084815260200190815260200160002060018154811061152a5761152961192f565b5b9060005260206000200160009054906101000a900473ffffffffffffffffffffffffffffffffffffffff1673ffffffffffffffffffffffffffffffffffffffff1666b1a2bc2ec5000060405161157f90611c70565b60006040518083038185875af1925050503d80600081146115bc576040519150601f19603f3d011682016040523d82523d6000602084013e6115c1565b606091505b505090508180156115cf5750805b61160e576040517f08c379a000000000000000000000000000000000000000000000000000000000815260040161160590611cd1565b60405180910390fd5b505050565b600080fd5b6000819050919050565b61162b81611618565b811461163657600080fd5b50565b60008135905061164881611622565b92915050565b600060ff82169050919050565b6116648161164e565b811461166f57600080fd5b50565b6000813590506116818161165b565b92915050565b6000806000606084860312156116a05761169f611613565b5b60006116ae86828701611639565b93505060206116bf86828701611672565b92505060406116d086828701611672565b9150509250925092565b6000602082840312156116f0576116ef611613565b5b60006116fe84828501611639565b91505092915050565b600073ffffffffffffffffffffffffffffffffffffffff82169050919050565b600061173282611707565b9050919050565b61174281611727565b82525050565b600060208201905061175d6000830184611739565b92915050565b7f4e487b7100000000000000000000000000000000000000000000000000000000600052602160045260246000fd5b600381106117a3576117a2611763565b5b50565b60008190506117b482611792565b919050565b60006117c4826117a6565b9050919050565b6117d4816117b9565b82525050565b60006020820190506117ef60008301846117cb565b92915050565b6000806040838503121561180c5761180b611613565b5b600061181a85828601611639565b925050602061182b85828601611639565b9150509250929050565b60008060006060848603121561184e5761184d611613565b5b600061185c86828701611639565b935050602061186d86828701611639565b925050604061187e86828701611639565b9150509250925092565b6118918161164e565b82525050565b60006020820190506118ac6000830184611888565b92915050565b600082825260208201905092915050565b7f49742773206e6f7420796f7572207475726e0000000000000000000000000000600082015250565b60006118f96012836118b2565b9150611904826118c3565b602082019050919050565b60006020820190508181036000830152611928816118ec565b9050919050565b7f4e487b7100000000000000000000000000000000000000000000000000000000600052603260045260246000fd5b7f54686973206669656c6420697320616c72656164792074616b656e0000000000600082015250565b6000611994601b836118b2565b915061199f8261195e565b602082019050919050565b600060208201905081810360008301526119c381611987565b9050919050565b7f47616d65206973206e6f7420706c6179696e6700000000000000000000000000600082015250565b6000611a006013836118b2565b9150611a0b826119ca565b602082019050919050565b60006020820190508181036000830152611a2f816119f3565b9050919050565b7f596f75206d7573742073656e6420302e30352065746865720000000000000000600082015250565b6000611a6c6018836118b2565b9150611a7782611a36565b602082019050919050565b60006020820190508181036000830152611a9b81611a5f565b9050919050565b7f47616d6520697320616c72656164792066756c6c000000000000000000000000600082015250565b6000611ad86014836118b2565b9150611ae382611aa2565b602082019050919050565b60006020820190508181036000830152611b0781611acb565b9050919050565b7f4e487b7100000000000000000000000000000000000000000000000000000000600052601160045260246000fd5b6000611b488261164e565b915060ff821415611b5c57611b5b611b0e565b5b600182019050919050565b7f47616d65206973206e6f742066696e6973686564000000000000000000000000600082015250565b6000611b9d6014836118b2565b9150611ba882611b67565b602082019050919050565b60006020820190508181036000830152611bcc81611b90565b9050919050565b7f596f7520617265206e6f74207468652077696e6e657200000000000000000000600082015250565b6000611c096016836118b2565b9150611c1482611bd3565b602082019050919050565b60006020820190508181036000830152611c3881611bfc565b9050919050565b600081905092915050565b50565b6000611c5a600083611c3f565b9150611c6582611c4a565b600082019050919050565b6000611c7b82611c4d565b9150819050919050565b7f5472616e73666572206661696c65642e00000000000000000000000000000000600082015250565b6000611cbb6010836118b2565b9150611cc682611c85565b602082019050919050565b60006020820190508181036000830152611cea81611cae565b905091905056fea2646970667358221220009bb8ed8c8f8906790dbfb127230dd221bc39cb0f52f11e2b0aedcd7528e6a964736f6c63430008090033",
  "linkReferences": {},
  "deployedLinkReferences": {}
}